{
  "transactions": [
    {
      "hash": "0xd83fb3dfc723dc17bf59fc7475bbe0b1b6ba7ce4556449f9dba6408473b784f9",
      "transactionType": "CREATE",
      "contractName": "AlignmentManagerV1",
      "contractAddress": "0xc5de80a4848367cbda73984cc1054cc08a975894",
      "function": null,
      "arguments": [
        "[0x0F59477D7517013A496fFC6aF6466Ac0d869C203, 0xc0f0E1512D6A0A77ff7b9C172405D1B0d73565Bf]",
        "[0xc0f0E1512D6A0A77ff7b9C172405D1B0d73565Bf]",
        "[0xc0f0E1512D6A0A77ff7b9C172405D1B0d73565Bf]",
        "[0xc0f0E1512D6A0A77ff7b9C172405D1B0d73565Bf]"
      ],
      "transaction": {
        "from": "0x0f59477d7517013a496ffc6af6466ac0d869c203",
        "gas": "0x1e65c1",
        "value": "0x0",
        "input": "0x608060405234801561000f575f80fd5b50604051611dd4380380611dd4833981810160405281019061003191906104c6565b5f5b8451811015610076576100685f801b8683815181106100555761005461059a565b5b60200260200101516101ac60201b60201c565b508080600101915050610033565b505f5b83518110156100da576100cc7f8135f02737a6b32709c1f229001b55183df0d6abcb3022e8bae091ad43fd9e6d8583815181106100b9576100b861059a565b5b60200260200101516101ac60201b60201c565b508080600101915050610079565b505f5b825181101561013e576101307fa9783f04da8148a3316ae0711a5359306e6a8cfe393cba07d5b0a87301bb5efd84838151811061011d5761011c61059a565b5b60200260200101516101ac60201b60201c565b5080806001019150506100dd565b505f5b81518110156101a2576101947f9d98d3d08f0062b192694645e127c98e5f96f3bbec331d061acaac3ace2327f98383815181106101815761018061059a565b5b60200260200101516101ac60201b60201c565b508080600101915050610141565b50505050506105c7565b5f6101bd83836102a160201b60201c565b6102975760015f808581526020019081526020015f205f015f8473ffffffffffffffffffffffffffffffffffffffff1673ffffffffffffffffffffffffffffffffffffffff1681526020019081526020015f205f6101000a81548160ff02191690831515021790555061023461030460201b60201c565b73ffffffffffffffffffffffffffffffffffffffff168273ffffffffffffffffffffffffffffffffffffffff16847f2f8788117e7eff1d82e926ec794901d17c78024a50270940304540a733656f0d60405160405180910390a46001905061029b565b5f90505b92915050565b5f805f8481526020019081526020015f205f015f8373ffffffffffffffffffffffffffffffffffffffff1673ffffffffffffffffffffffffffffffffffffffff1681526020019081526020015f205f9054906101000a900460ff16905092915050565b5f33905090565b5f604051905090565b5f80fd5b5f80fd5b5f80fd5b5f601f19601f8301169050919050565b7f4e487b71000000000000000000000000000000000000000000000000000000005f52604160045260245ffd5b61036682610320565b810181811067ffffffffffffffff8211171561038557610384610330565b5b80604052505050565b5f61039761030b565b90506103a3828261035d565b919050565b5f67ffffffffffffffff8211156103c2576103c1610330565b5b602082029050602081019050919050565b5f80fd5b5f73ffffffffffffffffffffffffffffffffffffffff82169050919050565b5f610400826103d7565b9050919050565b610410816103f6565b811461041a575f80fd5b50565b5f8151905061042b81610407565b92915050565b5f61044361043e846103a8565b61038e565b90508083825260208201905060208402830185811115610466576104656103d3565b5b835b8181101561048f578061047b888261041d565b845260208401935050602081019050610468565b5050509392505050565b5f82601f8301126104ad576104ac61031c565b5b81516104bd848260208601610431565b91505092915050565b5f805f80608085870312156104de576104dd610314565b5b5f85015167ffffffffffffffff8111156104fb576104fa610318565b5b61050787828801610499565b945050602085015167ffffffffffffffff81111561052857610527610318565b5b61053487828801610499565b935050604085015167ffffffffffffffff81111561055557610554610318565b5b61056187828801610499565b925050606085015167ffffffffffffffff81111561058257610581610318565b5b61058e87828801610499565b91505092959194509250565b7f4e487b71000000000000000000000000000000000000000000000000000000005f52603260045260245ffd5b611800806105d45f395ff3fe608060405260043610610134575f3560e01c806391d14854116100aa578063c09703281161006e578063c09703281461041e578063c4707a8314610448578063c65d5ff214610472578063c80f7b4c1461049a578063d547741f146104c4578063e473dcad146104ec57610134565b806391d148541461032a5780639892a373146103665780639d28b506146103a2578063a217fddf146103cc578063bfb62028146103f657610134565b80632e1a7d4d116100fc5780632e1a7d4d146102325780632f2ff15d1461025a57806330e865a81461028257806336568abe146102aa578063427aa601146102d25780636966b6ec146102ee57610134565b806301ffc9a714610138578063069bbf171461017457806308d074c914610190578063248a9ca3146101cc578063251056e114610208575b5f80fd5b348015610143575f80fd5b5061015e6004803603810190610159919061126f565b610516565b60405161016b91906112b4565b60405180910390f35b61018e60048036038101906101899190611327565b61058f565b005b34801561019b575f80fd5b506101b660048036038101906101b19190611327565b610744565b6040516101c3919061136a565b60405180910390f35b3480156101d7575f80fd5b506101f260048036038101906101ed91906113b6565b61078a565b6040516101ff91906113f0565b60405180910390f35b348015610213575f80fd5b5061021c6107a6565b60405161022991906113f0565b60405180910390f35b34801561023d575f80fd5b5061025860048036038101906102539190611433565b6107ca565b005b348015610265575f80fd5b50610280600480360381019061027b919061145e565b6108c2565b005b34801561028d575f80fd5b506102a860048036038101906102a39190611327565b6108e4565b005b3480156102b5575f80fd5b506102d060048036038101906102cb919061145e565b610952565b005b6102ec60048036038101906102e79190611327565b6109cd565b005b3480156102f9575f80fd5b50610314600480360381019061030f9190611327565b610c8d565b60405161032191906112b4565b60405180910390f35b348015610335575f80fd5b50610350600480360381019061034b919061145e565b610cd8565b60405161035d91906112b4565b60405180910390f35b348015610371575f80fd5b5061038c60048036038101906103879190611327565b610d3b565b6040516103999190611553565b60405180910390f35b3480156103ad575f80fd5b506103b6610e03565b6040516103c391906113f0565b60405180910390f35b3480156103d7575f80fd5b506103e0610e27565b6040516103ed91906113f0565b60405180910390f35b348015610401575f80fd5b5061041c60048036038101906104179190611327565b610e2d565b005b348015610429575f80fd5b50610432610e9b565b60405161043f9190611582565b60405180910390f35b348015610453575f80fd5b5061045c610ec3565b60405161046991906113f0565b60405180910390f35b34801561047d575f80fd5b5061049860048036038101906104939190611433565b610ee7565b005b3480156104a5575f80fd5b506104ae610f1c565b6040516104bb919061136a565b60405180910390f35b3480156104cf575f80fd5b506104ea60048036038101906104e5919061145e565b610f25565b005b3480156104f7575f80fd5b50610500610f47565b60405161050d9190611582565b60405180910390f35b5f7f7965db0b000000000000000000000000000000000000000000000000000000007bffffffffffffffffffffffffffffffffffffffffffffffffffffffff1916827bffffffffffffffffffffffffffffffffffffffffffffffffffffffff19161480610588575061058782610f6f565b5b9050919050565b6002543410156105cb576040517f8a0d377900000000000000000000000000000000000000000000000000000000815260040160405180910390fd5b60035f8273ffffffffffffffffffffffffffffffffffffffff1673ffffffffffffffffffffffffffffffffffffffff1681526020019081526020015f205f815480929190610618906115c8565b919050555060045f3373ffffffffffffffffffffffffffffffffffffffff1673ffffffffffffffffffffffffffffffffffffffff1681526020019081526020015f2081908060018154018082558091505060019003905f5260205f20015f9091909190916101000a81548173ffffffffffffffffffffffffffffffffffffffff021916908373ffffffffffffffffffffffffffffffffffffffff16021790555060015f9054906101000a900473ffffffffffffffffffffffffffffffffffffffff1673ffffffffffffffffffffffffffffffffffffffff16630dc38a6782336040518363ffffffff1660e01b815260040161071492919061160f565b5f604051808303815f87803b15801561072b575f80fd5b505af115801561073d573d5f803e3d5ffd5b5050505050565b5f60035f8373ffffffffffffffffffffffffffffffffffffffff1673ffffffffffffffffffffffffffffffffffffffff1681526020019081526020015f20549050919050565b5f805f8381526020019081526020015f20600101549050919050565b7fa9783f04da8148a3316ae0711a5359306e6a8cfe393cba07d5b0a87301bb5efd81565b7f9d98d3d08f0062b192694645e127c98e5f96f3bbec331d061acaac3ace2327f96107f481610fd8565b5f60055f9054906101000a900473ffffffffffffffffffffffffffffffffffffffff1673ffffffffffffffffffffffffffffffffffffffff168360405161083a90611663565b5f6040518083038185875af1925050503d805f8114610874576040519150601f19603f3d011682016040523d82523d5f602084013e610879565b606091505b50509050806108bd576040517f08c379a00000000000000000000000000000000000000000000000000000000081526004016108b4906116d1565b60405180910390fd5b505050565b6108cb8261078a565b6108d481610fd8565b6108de8383610fec565b50505050565b7f8135f02737a6b32709c1f229001b55183df0d6abcb3022e8bae091ad43fd9e6d61090e81610fd8565b8160015f6101000a81548173ffffffffffffffffffffffffffffffffffffffff021916908373ffffffffffffffffffffffffffffffffffffffff1602179055505050565b61095a6110d5565b73ffffffffffffffffffffffffffffffffffffffff168173ffffffffffffffffffffffffffffffffffffffff16146109be576040517f6697b23200000000000000000000000000000000000000000000000000000000815260040160405180910390fd5b6109c882826110dc565b505050565b60035f8273ffffffffffffffffffffffffffffffffffffffff1673ffffffffffffffffffffffffffffffffffffffff1681526020019081526020015f205f815480929190610a1a906116ef565b91905055505f60045f3373ffffffffffffffffffffffffffffffffffffffff1673ffffffffffffffffffffffffffffffffffffffff1681526020019081526020015f2090505f80805f90505b8380549050811015610af8578473ffffffffffffffffffffffffffffffffffffffff16848281548110610a9c57610a9b611716565b5b905f5260205f20015f9054906101000a900473ffffffffffffffffffffffffffffffffffffffff1673ffffffffffffffffffffffffffffffffffffffff1603610aeb5780915060019250610af8565b8080600101915050610a66565b508115610bfe5760018380549050610b109190611743565b8114610bba578260018480549050610b289190611743565b81548110610b3957610b38611716565b5b905f5260205f20015f9054906101000a900473ffffffffffffffffffffffffffffffffffffffff16838281548110610b7457610b73611716565b5b905f5260205f20015f6101000a81548173ffffffffffffffffffffffffffffffffffffffff021916908373ffffffffffffffffffffffffffffffffffffffff1602179055505b82805480610bcb57610bca611776565b5b600190038181905f5260205f20015f6101000a81549073ffffffffffffffffffffffffffffffffffffffff021916905590555b60015f9054906101000a900473ffffffffffffffffffffffffffffffffffffffff1673ffffffffffffffffffffffffffffffffffffffff16638750872385336040518363ffffffff1660e01b8152600401610c5a92919061160f565b5f604051808303815f87803b158015610c71575f80fd5b505af1158015610c83573d5f803e3d5ffd5b5050505050505050565b5f8060045f8473ffffffffffffffffffffffffffffffffffffffff1673ffffffffffffffffffffffffffffffffffffffff1681526020019081526020015f2080549050119050919050565b5f805f8481526020019081526020015f205f015f8373ffffffffffffffffffffffffffffffffffffffff1673ffffffffffffffffffffffffffffffffffffffff1681526020019081526020015f205f9054906101000a900460ff16905092915050565b606060045f8373ffffffffffffffffffffffffffffffffffffffff1673ffffffffffffffffffffffffffffffffffffffff1681526020019081526020015f20805480602002602001604051908101604052809291908181526020018280548015610df757602002820191905f5260205f20905b815f9054906101000a900473ffffffffffffffffffffffffffffffffffffffff1673ffffffffffffffffffffffffffffffffffffffff1681526020019060010190808311610dae575b50505050509050919050565b7f8135f02737a6b32709c1f229001b55183df0d6abcb3022e8bae091ad43fd9e6d81565b5f801b81565b7f9d98d3d08f0062b192694645e127c98e5f96f3bbec331d061acaac3ace2327f9610e5781610fd8565b8160055f6101000a81548173ffffffffffffffffffffffffffffffffffffffff021916908373ffffffffffffffffffffffffffffffffffffffff1602179055505050565b5f60015f9054906101000a900473ffffffffffffffffffffffffffffffffffffffff16905090565b7f9d98d3d08f0062b192694645e127c98e5f96f3bbec331d061acaac3ace2327f981565b7fa9783f04da8148a3316ae0711a5359306e6a8cfe393cba07d5b0a87301bb5efd610f1181610fd8565b816002819055505050565b5f600254905090565b610f2e8261078a565b610f3781610fd8565b610f4183836110dc565b50505050565b5f60055f9054906101000a900473ffffffffffffffffffffffffffffffffffffffff16905090565b5f7f01ffc9a7000000000000000000000000000000000000000000000000000000007bffffffffffffffffffffffffffffffffffffffffffffffffffffffff1916827bffffffffffffffffffffffffffffffffffffffffffffffffffffffff1916149050919050565b610fe981610fe46110d5565b6111c5565b50565b5f610ff78383610cd8565b6110cb5760015f808581526020019081526020015f205f015f8473ffffffffffffffffffffffffffffffffffffffff1673ffffffffffffffffffffffffffffffffffffffff1681526020019081526020015f205f6101000a81548160ff0219169083151502179055506110686110d5565b73ffffffffffffffffffffffffffffffffffffffff168273ffffffffffffffffffffffffffffffffffffffff16847f2f8788117e7eff1d82e926ec794901d17c78024a50270940304540a733656f0d60405160405180910390a4600190506110cf565b5f90505b92915050565b5f33905090565b5f6110e78383610cd8565b156111bb575f805f8581526020019081526020015f205f015f8473ffffffffffffffffffffffffffffffffffffffff1673ffffffffffffffffffffffffffffffffffffffff1681526020019081526020015f205f6101000a81548160ff0219169083151502179055506111586110d5565b73ffffffffffffffffffffffffffffffffffffffff168273ffffffffffffffffffffffffffffffffffffffff16847ff6391f5c32d9c69d2a47ea670b442974b53935d1edc7fd64eb21e047a839171b60405160405180910390a4600190506111bf565b5f90505b92915050565b6111cf8282610cd8565b6112125780826040517fe2517d3f0000000000000000000000000000000000000000000000000000000081526004016112099291906117a3565b60405180910390fd5b5050565b5f80fd5b5f7fffffffff0000000000000000000000000000000000000000000000000000000082169050919050565b61124e8161121a565b8114611258575f80fd5b50565b5f8135905061126981611245565b92915050565b5f6020828403121561128457611283611216565b5b5f6112918482850161125b565b91505092915050565b5f8115159050919050565b6112ae8161129a565b82525050565b5f6020820190506112c75f8301846112a5565b92915050565b5f73ffffffffffffffffffffffffffffffffffffffff82169050919050565b5f6112f6826112cd565b9050919050565b611306816112ec565b8114611310575f80fd5b50565b5f81359050611321816112fd565b92915050565b5f6020828403121561133c5761133b611216565b5b5f61134984828501611313565b91505092915050565b5f819050919050565b61136481611352565b82525050565b5f60208201905061137d5f83018461135b565b92915050565b5f819050919050565b61139581611383565b811461139f575f80fd5b50565b5f813590506113b08161138c565b92915050565b5f602082840312156113cb576113ca611216565b5b5f6113d8848285016113a2565b91505092915050565b6113ea81611383565b82525050565b5f6020820190506114035f8301846113e1565b92915050565b61141281611352565b811461141c575f80fd5b50565b5f8135905061142d81611409565b92915050565b5f6020828403121561144857611447611216565b5b5f6114558482850161141f565b91505092915050565b5f806040838503121561147457611473611216565b5b5f611481858286016113a2565b925050602061149285828601611313565b9150509250929050565b5f81519050919050565b5f82825260208201905092915050565b5f819050602082019050919050565b6114ce816112ec565b82525050565b5f6114df83836114c5565b60208301905092915050565b5f602082019050919050565b5f6115018261149c565b61150b81856114a6565b9350611516836114b6565b805f5b8381101561154657815161152d88826114d4565b9750611538836114eb565b925050600181019050611519565b5085935050505092915050565b5f6020820190508181035f83015261156b81846114f7565b905092915050565b61157c816112ec565b82525050565b5f6020820190506115955f830184611573565b92915050565b7f4e487b71000000000000000000000000000000000000000000000000000000005f52601160045260245ffd5b5f6115d282611352565b91507fffffffffffffffffffffffffffffffffffffffffffffffffffffffffffffffff82036116045761160361159b565b5b600182019050919050565b5f6040820190506116225f830185611573565b61162f6020830184611573565b9392505050565b5f81905092915050565b50565b5f61164e5f83611636565b915061165982611640565b5f82019050919050565b5f61166d82611643565b9150819050919050565b5f82825260208201905092915050565b7f4661696c656420746f2073656e642045746865720000000000000000000000005f82015250565b5f6116bb601483611677565b91506116c682611687565b602082019050919050565b5f6020820190508181035f8301526116e8816116af565b9050919050565b5f6116f982611352565b91505f820361170b5761170a61159b565b5b600182039050919050565b7f4e487b71000000000000000000000000000000000000000000000000000000005f52603260045260245ffd5b5f61174d82611352565b915061175883611352565b92508282039050818111156117705761176f61159b565b5b92915050565b7f4e487b71000000000000000000000000000000000000000000000000000000005f52603160045260245ffd5b5f6040820190506117b65f830185611573565b6117c360208301846113e1565b939250505056fea264697066735822122017c18b8faaf472d45fc124f76adf95f5ae5e41149c30c1ba6d7751d0c26d232164736f6c634300081a0033000000000000000000000000000000000000000000000000000000000000008000000000000000000000000000000000000000000000000000000000000000e00000000000000000000000000000000000000000000000000000000000000120000000000000000000000000000000000000000000000000000000000000016000000000000000000000000000000000000000000000000000000000000000020000000000000000000000000f59477d7517013a496ffc6af6466ac0d869c203000000000000000000000000c0f0e1512d6a0a77ff7b9c172405d1b0d73565bf0000000000000000000000000000000000000000000000000000000000000001000000000000000000000000c0f0e1512d6a0a77ff7b9c172405d1b0d73565bf0000000000000000000000000000000000000000000000000000000000000001000000000000000000000000c0f0e1512d6a0a77ff7b9c172405d1b0d73565bf0000000000000000000000000000000000000000000000000000000000000001000000000000000000000000c0f0e1512d6a0a77ff7b9c172405d1b0d73565bf",
        "nonce": "0x8",
        "chainId": "0x2105"
      },
      "additionalContracts": [],
      "isFixedGasLimit": false
    },
    {
      "hash": "0x0918b209f7381bef3048b40f226c2941f485af66cd8bc089ea1a8b299c9837aa",
      "transactionType": "CREATE",
      "contractName": "AlignmentV1",
      "contractAddress": "0x5acf7407c3557ccb2b2327543314c5affd1c34ba",
      "function": null,
      "arguments": [
        "[0x0F59477D7517013A496fFC6aF6466Ac0d869C203, 0xc0f0E1512D6A0A77ff7b9C172405D1B0d73565Bf]",
        "[0xC5De80A4848367CbdA73984cC1054cc08a975894]",
        "[0xC5De80A4848367CbdA73984cC1054cc08a975894]"
      ],
      "transaction": {
        "from": "0x0f59477d7517013a496ffc6af6466ac0d869c203",
        "gas": "0x10353d",
        "value": "0x0",
        "input": "0x608060405234801561000f575f80fd5b506040516110d03803806110d083398181016040528101906100319190610461565b5f5b8351811015610076576100685f801b85838151811061005557610054610505565b5b602002602001015161014760201b60201c565b508080600101915050610033565b505f5b82518110156100da576100cc7fc2825d737a264424cb2f2b7cd741b567aae783c235a5ef0089f07e98a100cb4b8483815181106100b9576100b8610505565b5b602002602001015161014760201b60201c565b508080600101915050610079565b505f5b815181101561013e576101307fffa5c698e3a2cbac270d1e1341a180923b70242637cb060413b9d1afe1f7175f83838151811061011d5761011c610505565b5b602002602001015161014760201b60201c565b5080806001019150506100dd565b50505050610532565b5f610158838361023c60201b60201c565b6102325760015f808581526020019081526020015f205f015f8473ffffffffffffffffffffffffffffffffffffffff1673ffffffffffffffffffffffffffffffffffffffff1681526020019081526020015f205f6101000a81548160ff0219169083151502179055506101cf61029f60201b60201c565b73ffffffffffffffffffffffffffffffffffffffff168273ffffffffffffffffffffffffffffffffffffffff16847f2f8788117e7eff1d82e926ec794901d17c78024a50270940304540a733656f0d60405160405180910390a460019050610236565b5f90505b92915050565b5f805f8481526020019081526020015f205f015f8373ffffffffffffffffffffffffffffffffffffffff1673ffffffffffffffffffffffffffffffffffffffff1681526020019081526020015f205f9054906101000a900460ff16905092915050565b5f33905090565b5f604051905090565b5f80fd5b5f80fd5b5f80fd5b5f601f19601f8301169050919050565b7f4e487b71000000000000000000000000000000000000000000000000000000005f52604160045260245ffd5b610301826102bb565b810181811067ffffffffffffffff821117156103205761031f6102cb565b5b80604052505050565b5f6103326102a6565b905061033e82826102f8565b919050565b5f67ffffffffffffffff82111561035d5761035c6102cb565b5b602082029050602081019050919050565b5f80fd5b5f73ffffffffffffffffffffffffffffffffffffffff82169050919050565b5f61039b82610372565b9050919050565b6103ab81610391565b81146103b5575f80fd5b50565b5f815190506103c6816103a2565b92915050565b5f6103de6103d984610343565b610329565b905080838252602082019050602084028301858111156104015761040061036e565b5b835b8181101561042a578061041688826103b8565b845260208401935050602081019050610403565b5050509392505050565b5f82601f830112610448576104476102b7565b5b81516104588482602086016103cc565b91505092915050565b5f805f60608486031215610478576104776102af565b5b5f84015167ffffffffffffffff811115610495576104946102b3565b5b6104a186828701610434565b935050602084015167ffffffffffffffff8111156104c2576104c16102b3565b5b6104ce86828701610434565b925050604084015167ffffffffffffffff8111156104ef576104ee6102b3565b5b6104fb86828701610434565b9150509250925092565b7f4e487b71000000000000000000000000000000000000000000000000000000005f52603260045260245ffd5b610b918061053f5f395ff3fe608060405234801561000f575f80fd5b50600436106100b2575f3560e01c806391d148541161006f57806391d14854146101865780639eb24b9c146101b6578063a15e6256146101e6578063a217fddf14610204578063d547741f14610222578063f7ca35901461023e576100b2565b806301ffc9a7146100b65780630dc38a67146100e6578063248a9ca3146101025780632f2ff15d1461013257806336568abe1461014e578063875087231461016a575b5f80fd5b6100d060048036038101906100cb919061096b565b61025c565b6040516100dd91906109b0565b60405180910390f35b61010060048036038101906100fb9190610a23565b6102d5565b005b61011c60048036038101906101179190610a94565b610393565b6040516101299190610ace565b60405180910390f35b61014c60048036038101906101479190610ae7565b6103af565b005b61016860048036038101906101639190610ae7565b6103d1565b005b610184600480360381019061017f9190610a23565b61044c565b005b6101a0600480360381019061019b9190610ae7565b61050a565b6040516101ad91906109b0565b60405180910390f35b6101d060048036038101906101cb9190610a23565b61056d565b6040516101dd91906109b0565b60405180910390f35b6101ee6105fb565b6040516101fb9190610ace565b60405180910390f35b61020c61061f565b6040516102199190610ace565b60405180910390f35b61023c60048036038101906102379190610ae7565b610625565b005b610246610647565b6040516102539190610ace565b60405180910390f35b5f7f7965db0b000000000000000000000000000000000000000000000000000000007bffffffffffffffffffffffffffffffffffffffffffffffffffffffff1916827bffffffffffffffffffffffffffffffffffffffffffffffffffffffff191614806102ce57506102cd8261066b565b5b9050919050565b7fc2825d737a264424cb2f2b7cd741b567aae783c235a5ef0089f07e98a100cb4b6102ff816106d4565b6001805f8573ffffffffffffffffffffffffffffffffffffffff1673ffffffffffffffffffffffffffffffffffffffff1681526020019081526020015f205f8473ffffffffffffffffffffffffffffffffffffffff1673ffffffffffffffffffffffffffffffffffffffff1681526020019081526020015f205f6101000a81548160ff021916908315150217905550505050565b5f805f8381526020019081526020015f20600101549050919050565b6103b882610393565b6103c1816106d4565b6103cb83836106e8565b50505050565b6103d96107d1565b73ffffffffffffffffffffffffffffffffffffffff168173ffffffffffffffffffffffffffffffffffffffff161461043d576040517f6697b23200000000000000000000000000000000000000000000000000000000815260040160405180910390fd5b61044782826107d8565b505050565b7fffa5c698e3a2cbac270d1e1341a180923b70242637cb060413b9d1afe1f7175f610476816106d4565b5f60015f8573ffffffffffffffffffffffffffffffffffffffff1673ffffffffffffffffffffffffffffffffffffffff1681526020019081526020015f205f8473ffffffffffffffffffffffffffffffffffffffff1673ffffffffffffffffffffffffffffffffffffffff1681526020019081526020015f205f6101000a81548160ff021916908315150217905550505050565b5f805f8481526020019081526020015f205f015f8373ffffffffffffffffffffffffffffffffffffffff1673ffffffffffffffffffffffffffffffffffffffff1681526020019081526020015f205f9054906101000a900460ff16905092915050565b5f60015f8473ffffffffffffffffffffffffffffffffffffffff1673ffffffffffffffffffffffffffffffffffffffff1681526020019081526020015f205f8373ffffffffffffffffffffffffffffffffffffffff1673ffffffffffffffffffffffffffffffffffffffff1681526020019081526020015f205f9054906101000a900460ff16905092915050565b7fffa5c698e3a2cbac270d1e1341a180923b70242637cb060413b9d1afe1f7175f81565b5f801b81565b61062e82610393565b610637816106d4565b61064183836107d8565b50505050565b7fc2825d737a264424cb2f2b7cd741b567aae783c235a5ef0089f07e98a100cb4b81565b5f7f01ffc9a7000000000000000000000000000000000000000000000000000000007bffffffffffffffffffffffffffffffffffffffffffffffffffffffff1916827bffffffffffffffffffffffffffffffffffffffffffffffffffffffff1916149050919050565b6106e5816106e06107d1565b6108c1565b50565b5f6106f3838361050a565b6107c75760015f808581526020019081526020015f205f015f8473ffffffffffffffffffffffffffffffffffffffff1673ffffffffffffffffffffffffffffffffffffffff1681526020019081526020015f205f6101000a81548160ff0219169083151502179055506107646107d1565b73ffffffffffffffffffffffffffffffffffffffff168273ffffffffffffffffffffffffffffffffffffffff16847f2f8788117e7eff1d82e926ec794901d17c78024a50270940304540a733656f0d60405160405180910390a4600190506107cb565b5f90505b92915050565b5f33905090565b5f6107e3838361050a565b156108b7575f805f8581526020019081526020015f205f015f8473ffffffffffffffffffffffffffffffffffffffff1673ffffffffffffffffffffffffffffffffffffffff1681526020019081526020015f205f6101000a81548160ff0219169083151502179055506108546107d1565b73ffffffffffffffffffffffffffffffffffffffff168273ffffffffffffffffffffffffffffffffffffffff16847ff6391f5c32d9c69d2a47ea670b442974b53935d1edc7fd64eb21e047a839171b60405160405180910390a4600190506108bb565b5f90505b92915050565b6108cb828261050a565b61090e5780826040517fe2517d3f000000000000000000000000000000000000000000000000000000008152600401610905929190610b34565b60405180910390fd5b5050565b5f80fd5b5f7fffffffff0000000000000000000000000000000000000000000000000000000082169050919050565b61094a81610916565b8114610954575f80fd5b50565b5f8135905061096581610941565b92915050565b5f602082840312156109805761097f610912565b5b5f61098d84828501610957565b91505092915050565b5f8115159050919050565b6109aa81610996565b82525050565b5f6020820190506109c35f8301846109a1565b92915050565b5f73ffffffffffffffffffffffffffffffffffffffff82169050919050565b5f6109f2826109c9565b9050919050565b610a02816109e8565b8114610a0c575f80fd5b50565b5f81359050610a1d816109f9565b92915050565b5f8060408385031215610a3957610a38610912565b5b5f610a4685828601610a0f565b9250506020610a5785828601610a0f565b9150509250929050565b5f819050919050565b610a7381610a61565b8114610a7d575f80fd5b50565b5f81359050610a8e81610a6a565b92915050565b5f60208284031215610aa957610aa8610912565b5b5f610ab684828501610a80565b91505092915050565b610ac881610a61565b82525050565b5f602082019050610ae15f830184610abf565b92915050565b5f8060408385031215610afd57610afc610912565b5b5f610b0a85828601610a80565b9250506020610b1b85828601610a0f565b9150509250929050565b610b2e816109e8565b82525050565b5f604082019050610b475f830185610b25565b610b546020830184610abf565b939250505056fea2646970667358221220194563283bc4de3956287c90e711ee49e0759910ab102bfebe89bd42abd9b7c764736f6c634300081a0033000000000000000000000000000000000000000000000000000000000000006000000000000000000000000000000000000000000000000000000000000000c0000000000000000000000000000000000000000000000000000000000000010000000000000000000000000000000000000000000000000000000000000000020000000000000000000000000f59477d7517013a496ffc6af6466ac0d869c203000000000000000000000000c0f0e1512d6a0a77ff7b9c172405d1b0d73565bf0000000000000000000000000000000000000000000000000000000000000001000000000000000000000000c5de80a4848367cbda73984cc1054cc08a9758940000000000000000000000000000000000000000000000000000000000000001000000000000000000000000c5de80a4848367cbda73984cc1054cc08a975894",
        "nonce": "0x9",
        "chainId": "0x2105"
      },
      "additionalContracts": [],
      "isFixedGasLimit": false
    },
    {
      "hash": "0x47c65fa40df0d85759eadaf3ec07608988f0b0d004ca1c1082af2baa6660a52d",
      "transactionType": "CALL",
      "contractName": "AlignmentManagerV1",
      "contractAddress": "0xc5de80a4848367cbda73984cc1054cc08a975894",
      "function": "grantRole(bytes32,address)",
      "arguments": [
        "0x8135f02737a6b32709c1f229001b55183df0d6abcb3022e8bae091ad43fd9e6d",
        "0x0F59477D7517013A496fFC6aF6466Ac0d869C203"
      ],
      "transaction": {
        "from": "0x0f59477d7517013a496ffc6af6466ac0d869c203",
        "to": "0xc5de80a4848367cbda73984cc1054cc08a975894",
        "gas": "0x118a0",
        "value": "0x0",
        "input": "0x2f2ff15d8135f02737a6b32709c1f229001b55183df0d6abcb3022e8bae091ad43fd9e6d0000000000000000000000000f59477d7517013a496ffc6af6466ac0d869c203",
        "nonce": "0xa",
        "chainId": "0x2105"
      },
      "additionalContracts": [],
      "isFixedGasLimit": false
    },
    {
      "hash": "0x7e95fb4daeeb2f1482304b12fe8f9847f6f7f71f582cf323adff8107c2e44727",
      "transactionType": "CALL",
      "contractName": "AlignmentManagerV1",
      "contractAddress": "0xc5de80a4848367cbda73984cc1054cc08a975894",
      "function": "grantRole(bytes32,address)",
      "arguments": [
        "0xa9783f04da8148a3316ae0711a5359306e6a8cfe393cba07d5b0a87301bb5efd",
        "0x0F59477D7517013A496fFC6aF6466Ac0d869C203"
      ],
      "transaction": {
        "from": "0x0f59477d7517013a496ffc6af6466ac0d869c203",
        "to": "0xc5de80a4848367cbda73984cc1054cc08a975894",
        "gas": "0x118b1",
        "value": "0x0",
        "input": "0x2f2ff15da9783f04da8148a3316ae0711a5359306e6a8cfe393cba07d5b0a87301bb5efd0000000000000000000000000f59477d7517013a496ffc6af6466ac0d869c203",
        "nonce": "0xb",
        "chainId": "0x2105"
      },
      "additionalContracts": [],
      "isFixedGasLimit": false
    },
    {
      "hash": "0xf4e754ff7d308c20e0151b7a79e091a448bb9bd37007291b0e890323c4ff1a00",
      "transactionType": "CALL",
      "contractName": "AlignmentManagerV1",
      "contractAddress": "0xc5de80a4848367cbda73984cc1054cc08a975894",
      "function": "grantRole(bytes32,address)",
      "arguments": [
        "0x9d98d3d08f0062b192694645e127c98e5f96f3bbec331d061acaac3ace2327f9",
        "0x0F59477D7517013A496fFC6aF6466Ac0d869C203"
      ],
      "transaction": {
        "from": "0x0f59477d7517013a496ffc6af6466ac0d869c203",
        "to": "0xc5de80a4848367cbda73984cc1054cc08a975894",
        "gas": "0x118a0",
        "value": "0x0",
        "input": "0x2f2ff15d9d98d3d08f0062b192694645e127c98e5f96f3bbec331d061acaac3ace2327f90000000000000000000000000f59477d7517013a496ffc6af6466ac0d869c203",
        "nonce": "0xc",
        "chainId": "0x2105"
      },
      "additionalContracts": [],
      "isFixedGasLimit": false
    },
    {
      "hash": "0xf1fda9e4edb9f0ede1720d3a5dc77585306133c741f7921a5fd1b0e38b4bbeea",
      "transactionType": "CALL",
      "contractName": "AlignmentManagerV1",
      "contractAddress": "0xc5de80a4848367cbda73984cc1054cc08a975894",
      "function": "setAlignmentContract(address)",
      "arguments": [
        "0x5acf7407c3557CCb2B2327543314c5Affd1c34ba"
      ],
      "transaction": {
        "from": "0x0f59477d7517013a496ffc6af6466ac0d869c203",
        "to": "0xc5de80a4848367cbda73984cc1054cc08a975894",
        "gas": "0xfb56",
        "value": "0x0",
        "input": "0x30e865a80000000000000000000000005acf7407c3557ccb2b2327543314c5affd1c34ba",
        "nonce": "0xd",
        "chainId": "0x2105"
      },
      "additionalContracts": [],
      "isFixedGasLimit": false
    },
    {
      "hash": "0x135c2562d94dea0b38f8218ed89b0c4ad4058261f6bab8834c8320865d9a45de",
      "transactionType": "CALL",
      "contractName": "AlignmentManagerV1",
      "contractAddress": "0xc5de80a4848367cbda73984cc1054cc08a975894",
      "function": "setAlignmentCost(uint256)",
      "arguments": [
        "860000000000000"
      ],
      "transaction": {
        "from": "0x0f59477d7517013a496ffc6af6466ac0d869c203",
        "to": "0xc5de80a4848367cbda73984cc1054cc08a975894",
        "gas": "0x10895",
        "value": "0x0",
        "input": "0xc65d5ff200000000000000000000000000000000000000000000000000030e2a5a81c000",
        "nonce": "0xe",
        "chainId": "0x2105"
      },
      "additionalContracts": [],
      "isFixedGasLimit": false
    },
    {
      "hash": "0x35a744c8e18482b30ee14688114a25db2ff82122ad943739f42f8a35a63c88c0",
      "transactionType": "CALL",
      "contractName": "AlignmentManagerV1",
      "contractAddress": "0xc5de80a4848367cbda73984cc1054cc08a975894",
      "function": "setFundRecipient(address)",
      "arguments": [
        "0xc0f0E1512D6A0A77ff7b9C172405D1B0d73565Bf"
      ],
      "transaction": {
        "from": "0x0f59477d7517013a496ffc6af6466ac0d869c203",
        "to": "0xc5de80a4848367cbda73984cc1054cc08a975894",
        "gas": "0x10a5f",
        "value": "0x0",
        "input": "0xbfb62028000000000000000000000000c0f0e1512d6a0a77ff7b9c172405d1b0d73565bf",
        "nonce": "0xf",
        "chainId": "0x2105"
      },
      "additionalContracts": [],
      "isFixedGasLimit": false
    },
    {
      "hash": "0x0daa572a2ad45d7a1d3892179472eecb8979379b9f1e48960685e0b2c1838ab6",
      "transactionType": "CALL",
      "contractName": "AlignmentManagerV1",
      "contractAddress": "0xc5de80a4848367cbda73984cc1054cc08a975894",
      "function": "revokeRole(bytes32,address)",
      "arguments": [
        "0x8135f02737a6b32709c1f229001b55183df0d6abcb3022e8bae091ad43fd9e6d",
        "0x0F59477D7517013A496fFC6aF6466Ac0d869C203"
      ],
      "transaction": {
        "from": "0x0f59477d7517013a496ffc6af6466ac0d869c203",
        "to": "0xc5de80a4848367cbda73984cc1054cc08a975894",
        "gas": "0xac68",
        "value": "0x0",
        "input": "0xd547741f8135f02737a6b32709c1f229001b55183df0d6abcb3022e8bae091ad43fd9e6d0000000000000000000000000f59477d7517013a496ffc6af6466ac0d869c203",
        "nonce": "0x10",
        "chainId": "0x2105"
      },
      "additionalContracts": [],
      "isFixedGasLimit": false
    },
    {
      "hash": "0x3572bf4747e1bf07c0de3a5b00d45febf7ad86afb8d74e031e797f026c8fc9a4",
      "transactionType": "CALL",
      "contractName": "AlignmentManagerV1",
      "contractAddress": "0xc5de80a4848367cbda73984cc1054cc08a975894",
      "function": "revokeRole(bytes32,address)",
      "arguments": [
        "0xa9783f04da8148a3316ae0711a5359306e6a8cfe393cba07d5b0a87301bb5efd",
        "0x0F59477D7517013A496fFC6aF6466Ac0d869C203"
      ],
      "transaction": {
        "from": "0x0f59477d7517013a496ffc6af6466ac0d869c203",
        "to": "0xc5de80a4848367cbda73984cc1054cc08a975894",
        "gas": "0xa2e4",
        "value": "0x0",
        "input": "0xd547741fa9783f04da8148a3316ae0711a5359306e6a8cfe393cba07d5b0a87301bb5efd0000000000000000000000000f59477d7517013a496ffc6af6466ac0d869c203",
        "nonce": "0x11",
        "chainId": "0x2105"
      },
      "additionalContracts": [],
      "isFixedGasLimit": false
    },
    {
      "hash": "0x374575dda28a611df93bd3ab206a88b1357734875680f6ef8912aa288382bfca",
      "transactionType": "CALL",
      "contractName": "AlignmentManagerV1",
      "contractAddress": "0xc5de80a4848367cbda73984cc1054cc08a975894",
      "function": "revokeRole(bytes32,address)",
      "arguments": [
        "0x9d98d3d08f0062b192694645e127c98e5f96f3bbec331d061acaac3ace2327f9",
        "0x0F59477D7517013A496fFC6aF6466Ac0d869C203"
      ],
      "transaction": {
        "from": "0x0f59477d7517013a496ffc6af6466ac0d869c203",
        "to": "0xc5de80a4848367cbda73984cc1054cc08a975894",
        "gas": "0xac68",
        "value": "0x0",
        "input": "0xd547741f9d98d3d08f0062b192694645e127c98e5f96f3bbec331d061acaac3ace2327f90000000000000000000000000f59477d7517013a496ffc6af6466ac0d869c203",
        "nonce": "0x12",
        "chainId": "0x2105"
      },
      "additionalContracts": [],
      "isFixedGasLimit": false
    }
  ],
  "receipts": [
    {
      "status": "0x1",
      "cumulativeGasUsed": "0x17db21c",
      "logs": [
        {
          "address": "0xc5de80a4848367cbda73984cc1054cc08a975894",
          "topics": [
            "0x2f8788117e7eff1d82e926ec794901d17c78024a50270940304540a733656f0d",
            "0x0000000000000000000000000000000000000000000000000000000000000000",
            "0x0000000000000000000000000f59477d7517013a496ffc6af6466ac0d869c203",
            "0x0000000000000000000000000f59477d7517013a496ffc6af6466ac0d869c203"
          ],
          "data": "0x",
          "blockHash": "0x14627b7bd49e228e7430e42b365af5b7ed3f22fd285607e20761e3597b63fdce",
          "blockNumber": "0x1b6e59d",
          "transactionHash": "0xd83fb3dfc723dc17bf59fc7475bbe0b1b6ba7ce4556449f9dba6408473b784f9",
          "transactionIndex": "0x6d",
          "logIndex": "0xc8",
          "removed": false
        },
        {
          "address": "0xc5de80a4848367cbda73984cc1054cc08a975894",
          "topics": [
            "0x2f8788117e7eff1d82e926ec794901d17c78024a50270940304540a733656f0d",
            "0x0000000000000000000000000000000000000000000000000000000000000000",
            "0x000000000000000000000000c0f0e1512d6a0a77ff7b9c172405d1b0d73565bf",
            "0x0000000000000000000000000f59477d7517013a496ffc6af6466ac0d869c203"
          ],
          "data": "0x",
          "blockHash": "0x14627b7bd49e228e7430e42b365af5b7ed3f22fd285607e20761e3597b63fdce",
          "blockNumber": "0x1b6e59d",
          "transactionHash": "0xd83fb3dfc723dc17bf59fc7475bbe0b1b6ba7ce4556449f9dba6408473b784f9",
          "transactionIndex": "0x6d",
          "logIndex": "0xc9",
          "removed": false
        },
        {
          "address": "0xc5de80a4848367cbda73984cc1054cc08a975894",
          "topics": [
            "0x2f8788117e7eff1d82e926ec794901d17c78024a50270940304540a733656f0d",
            "0x8135f02737a6b32709c1f229001b55183df0d6abcb3022e8bae091ad43fd9e6d",
            "0x000000000000000000000000c0f0e1512d6a0a77ff7b9c172405d1b0d73565bf",
            "0x0000000000000000000000000f59477d7517013a496ffc6af6466ac0d869c203"
          ],
          "data": "0x",
          "blockHash": "0x14627b7bd49e228e7430e42b365af5b7ed3f22fd285607e20761e3597b63fdce",
          "blockNumber": "0x1b6e59d",
          "transactionHash": "0xd83fb3dfc723dc17bf59fc7475bbe0b1b6ba7ce4556449f9dba6408473b784f9",
          "transactionIndex": "0x6d",
          "logIndex": "0xca",
          "removed": false
        },
        {
          "address": "0xc5de80a4848367cbda73984cc1054cc08a975894",
          "topics": [
            "0x2f8788117e7eff1d82e926ec794901d17c78024a50270940304540a733656f0d",
            "0xa9783f04da8148a3316ae0711a5359306e6a8cfe393cba07d5b0a87301bb5efd",
            "0x000000000000000000000000c0f0e1512d6a0a77ff7b9c172405d1b0d73565bf",
            "0x0000000000000000000000000f59477d7517013a496ffc6af6466ac0d869c203"
          ],
          "data": "0x",
          "blockHash": "0x14627b7bd49e228e7430e42b365af5b7ed3f22fd285607e20761e3597b63fdce",
          "blockNumber": "0x1b6e59d",
          "transactionHash": "0xd83fb3dfc723dc17bf59fc7475bbe0b1b6ba7ce4556449f9dba6408473b784f9",
          "transactionIndex": "0x6d",
          "logIndex": "0xcb",
          "removed": false
        },
        {
          "address": "0xc5de80a4848367cbda73984cc1054cc08a975894",
          "topics": [
            "0x2f8788117e7eff1d82e926ec794901d17c78024a50270940304540a733656f0d",
            "0x9d98d3d08f0062b192694645e127c98e5f96f3bbec331d061acaac3ace2327f9",
            "0x000000000000000000000000c0f0e1512d6a0a77ff7b9c172405d1b0d73565bf",
            "0x0000000000000000000000000f59477d7517013a496ffc6af6466ac0d869c203"
          ],
          "data": "0x",
          "blockHash": "0x14627b7bd49e228e7430e42b365af5b7ed3f22fd285607e20761e3597b63fdce",
          "blockNumber": "0x1b6e59d",
          "transactionHash": "0xd83fb3dfc723dc17bf59fc7475bbe0b1b6ba7ce4556449f9dba6408473b784f9",
          "transactionIndex": "0x6d",
          "logIndex": "0xcc",
          "removed": false
        }
      ],
      "logsBloom": "0x00000004008000000000000000000000000000000002000400000000000000000000000080000000080001000000000000000000000000000000000000000001000000000000000400000000000000000000000000001008000000000000000000000000020000000000000000000800000000000000000000000000000000000000000000000000000000000000000000000000000100200000000000000000000000000000000000000000100000000000000000000000001200000000100000000000000200000000400000000000000000000000000100000000000020000000000000000000000000000004000000000000000000000000000000000000",
      "type": "0x0",
      "transactionHash": "0xd83fb3dfc723dc17bf59fc7475bbe0b1b6ba7ce4556449f9dba6408473b784f9",
      "transactionIndex": "0x6d",
      "blockHash": "0x14627b7bd49e228e7430e42b365af5b7ed3f22fd285607e20761e3597b63fdce",
      "blockNumber": "0x1b6e59d",
      "gasUsed": "0x1761f7",
      "effectiveGasPrice": "0x17f68d",
      "from": "0x0f59477d7517013a496ffc6af6466ac0d869c203",
      "to": null,
      "contractAddress": "0xc5de80a4848367cbda73984cc1054cc08a975894",
      "l1BaseFeeScalar": "0x8dd",
      "l1BlobBaseFee": "0x14c8fcf1",
      "l1BlobBaseFeeScalar": "0x101c12",
      "l1Fee": "0x12f2bf17c7f",
      "l1GasPrice": "0x24dba3c4",
      "l1GasUsed": "0xd058"
    },
    {
      "status": "0x1",
      "cumulativeGasUsed": "0x18a29d5",
      "logs": [
        {
          "address": "0x5acf7407c3557ccb2b2327543314c5affd1c34ba",
          "topics": [
            "0x2f8788117e7eff1d82e926ec794901d17c78024a50270940304540a733656f0d",
            "0x0000000000000000000000000000000000000000000000000000000000000000",
            "0x0000000000000000000000000f59477d7517013a496ffc6af6466ac0d869c203",
            "0x0000000000000000000000000f59477d7517013a496ffc6af6466ac0d869c203"
          ],
          "data": "0x",
          "blockHash": "0x14627b7bd49e228e7430e42b365af5b7ed3f22fd285607e20761e3597b63fdce",
          "blockNumber": "0x1b6e59d",
          "transactionHash": "0x0918b209f7381bef3048b40f226c2941f485af66cd8bc089ea1a8b299c9837aa",
          "transactionIndex": "0x6e",
          "logIndex": "0xcd",
          "removed": false
        },
        {
          "address": "0x5acf7407c3557ccb2b2327543314c5affd1c34ba",
          "topics": [
            "0x2f8788117e7eff1d82e926ec794901d17c78024a50270940304540a733656f0d",
            "0x0000000000000000000000000000000000000000000000000000000000000000",
            "0x000000000000000000000000c0f0e1512d6a0a77ff7b9c172405d1b0d73565bf",
            "0x0000000000000000000000000f59477d7517013a496ffc6af6466ac0d869c203"
          ],
          "data": "0x",
          "blockHash": "0x14627b7bd49e228e7430e42b365af5b7ed3f22fd285607e20761e3597b63fdce",
          "blockNumber": "0x1b6e59d",
          "transactionHash": "0x0918b209f7381bef3048b40f226c2941f485af66cd8bc089ea1a8b299c9837aa",
          "transactionIndex": "0x6e",
          "logIndex": "0xce",
          "removed": false
        },
        {
          "address": "0x5acf7407c3557ccb2b2327543314c5affd1c34ba",
          "topics": [
            "0x2f8788117e7eff1d82e926ec794901d17c78024a50270940304540a733656f0d",
            "0xc2825d737a264424cb2f2b7cd741b567aae783c235a5ef0089f07e98a100cb4b",
            "0x000000000000000000000000c5de80a4848367cbda73984cc1054cc08a975894",
            "0x0000000000000000000000000f59477d7517013a496ffc6af6466ac0d869c203"
          ],
          "data": "0x",
          "blockHash": "0x14627b7bd49e228e7430e42b365af5b7ed3f22fd285607e20761e3597b63fdce",
          "blockNumber": "0x1b6e59d",
          "transactionHash": "0x0918b209f7381bef3048b40f226c2941f485af66cd8bc089ea1a8b299c9837aa",
          "transactionIndex": "0x6e",
          "logIndex": "0xcf",
          "removed": false
        },
        {
          "address": "0x5acf7407c3557ccb2b2327543314c5affd1c34ba",
          "topics": [
            "0x2f8788117e7eff1d82e926ec794901d17c78024a50270940304540a733656f0d",
            "0xffa5c698e3a2cbac270d1e1341a180923b70242637cb060413b9d1afe1f7175f",
            "0x000000000000000000000000c5de80a4848367cbda73984cc1054cc08a975894",
            "0x0000000000000000000000000f59477d7517013a496ffc6af6466ac0d869c203"
          ],
          "data": "0x",
          "blockHash": "0x14627b7bd49e228e7430e42b365af5b7ed3f22fd285607e20761e3597b63fdce",
          "blockNumber": "0x1b6e59d",
          "transactionHash": "0x0918b209f7381bef3048b40f226c2941f485af66cd8bc089ea1a8b299c9837aa",
          "transactionIndex": "0x6e",
          "logIndex": "0xd0",
          "removed": false
        }
      ],
      "logsBloom": "0x00000004000000000000000000000000000000000040000400000000000000000000000080000000000001000000000000000040000000000000000200000000000000000000000400000000000000000000000000000400001000000000000000100000020000000000000000200800000000000000000000000000000000000000000000000000000000000000000002000000000000200000000000000000000000000000000000000000000000200000000000000000001000000000000000000000400200000000000000000000000000000000000100000000000020000000080000000000000000000000000000000000000000000000000000000000",
      "type": "0x0",
      "transactionHash": "0x0918b209f7381bef3048b40f226c2941f485af66cd8bc089ea1a8b299c9837aa",
      "transactionIndex": "0x6e",
      "blockHash": "0x14627b7bd49e228e7430e42b365af5b7ed3f22fd285607e20761e3597b63fdce",
      "blockNumber": "0x1b6e59d",
      "gasUsed": "0xc77b9",
      "effectiveGasPrice": "0x17f68d",
      "from": "0x0f59477d7517013a496ffc6af6466ac0d869c203",
      "to": null,
      "contractAddress": "0x5acf7407c3557ccb2b2327543314c5affd1c34ba",
      "l1BaseFeeScalar": "0x8dd",
      "l1BlobBaseFee": "0x14c8fcf1",
      "l1BlobBaseFeeScalar": "0x101c12",
      "l1Fee": "0xb033345b90",
      "l1GasPrice": "0x24dba3c4",
      "l1GasUsed": "0x7916"
    },
    {
      "status": "0x1",
      "cumulativeGasUsed": "0x18af501",
      "logs": [
        {
          "address": "0xc5de80a4848367cbda73984cc1054cc08a975894",
          "topics": [
            "0x2f8788117e7eff1d82e926ec794901d17c78024a50270940304540a733656f0d",
            "0x8135f02737a6b32709c1f229001b55183df0d6abcb3022e8bae091ad43fd9e6d",
            "0x0000000000000000000000000f59477d7517013a496ffc6af6466ac0d869c203",
            "0x0000000000000000000000000f59477d7517013a496ffc6af6466ac0d869c203"
          ],
          "data": "0x",
          "blockHash": "0x14627b7bd49e228e7430e42b365af5b7ed3f22fd285607e20761e3597b63fdce",
          "blockNumber": "0x1b6e59d",
          "transactionHash": "0x47c65fa40df0d85759eadaf3ec07608988f0b0d004ca1c1082af2baa6660a52d",
          "transactionIndex": "0x6f",
          "logIndex": "0xd1",
          "removed": false
        }
      ],
      "logsBloom": "0x00000004000000000000000000000000000000000000000400000000000000000000000000000000080000000000000000000000000000000000000000000000000000000000000000000000000000000000000000001008000000000000000000000000000000000000000000000000000000000000000000000000000000000000000000000000000000000000000000000000000100200000000000000000000000000000000000000000100000000000000000000000001000000000000000000000000200000000000000000000000000000000000100000000000000000000000000000000000000000004000000000000000000000000000000000000",
      "type": "0x0",
      "transactionHash": "0x47c65fa40df0d85759eadaf3ec07608988f0b0d004ca1c1082af2baa6660a52d",
      "transactionIndex": "0x6f",
      "blockHash": "0x14627b7bd49e228e7430e42b365af5b7ed3f22fd285607e20761e3597b63fdce",
      "blockNumber": "0x1b6e59d",
      "gasUsed": "0xcb2c",
      "effectiveGasPrice": "0x17f68d",
      "from": "0x0f59477d7517013a496ffc6af6466ac0d869c203",
      "to": "0xc5de80a4848367cbda73984cc1054cc08a975894",
      "contractAddress": null,
      "l1BaseFeeScalar": "0x8dd",
      "l1BlobBaseFee": "0x14c8fcf1",
      "l1BlobBaseFeeScalar": "0x101c12",
      "l1Fee": "0x91838d860",
      "l1GasPrice": "0x24dba3c4",
      "l1GasUsed": "0x640"
    },
    {
      "status": "0x1",
      "cumulativeGasUsed": "0x18bc039",
      "logs": [
        {
          "address": "0xc5de80a4848367cbda73984cc1054cc08a975894",
          "topics": [
            "0x2f8788117e7eff1d82e926ec794901d17c78024a50270940304540a733656f0d",
            "0xa9783f04da8148a3316ae0711a5359306e6a8cfe393cba07d5b0a87301bb5efd",
            "0x0000000000000000000000000f59477d7517013a496ffc6af6466ac0d869c203",
            "0x0000000000000000000000000f59477d7517013a496ffc6af6466ac0d869c203"
          ],
          "data": "0x",
          "blockHash": "0x14627b7bd49e228e7430e42b365af5b7ed3f22fd285607e20761e3597b63fdce",
          "blockNumber": "0x1b6e59d",
          "transactionHash": "0x7e95fb4daeeb2f1482304b12fe8f9847f6f7f71f582cf323adff8107c2e44727",
          "transactionIndex": "0x70",
          "logIndex": "0xd2",
          "removed": false
        }
      ],
      "logsBloom": "0x00000004000000000000000000000000000000000002000400000000000000000000000000000000080000000000000000000000000000000000000000000001000000000000000000000000000000000000000000001008000000000000000000000000000000000000000000000000000000000000000000000000000000000000000000000000000000000000000000000000000000200000000000000000000000000000000000000000000000000000000000000000001000000000000000000000000200000000400000000000000000000000000100000000000000000000000000000000000000000000000000000000000000000000000000000000",
      "type": "0x0",
      "transactionHash": "0x7e95fb4daeeb2f1482304b12fe8f9847f6f7f71f582cf323adff8107c2e44727",
      "transactionIndex": "0x70",
      "blockHash": "0x14627b7bd49e228e7430e42b365af5b7ed3f22fd285607e20761e3597b63fdce",
      "blockNumber": "0x1b6e59d",
      "gasUsed": "0xcb38",
      "effectiveGasPrice": "0x17f68d",
      "from": "0x0f59477d7517013a496ffc6af6466ac0d869c203",
      "to": "0xc5de80a4848367cbda73984cc1054cc08a975894",
      "contractAddress": null,
      "l1BaseFeeScalar": "0x8dd",
      "l1BlobBaseFee": "0x14c8fcf1",
      "l1BlobBaseFeeScalar": "0x101c12",
      "l1Fee": "0x91838d860",
      "l1GasPrice": "0x24dba3c4",
      "l1GasUsed": "0x640"
    },
    {
      "status": "0x1",
      "cumulativeGasUsed": "0x18c8b65",
      "logs": [
        {
          "address": "0xc5de80a4848367cbda73984cc1054cc08a975894",
          "topics": [
            "0x2f8788117e7eff1d82e926ec794901d17c78024a50270940304540a733656f0d",
            "0x9d98d3d08f0062b192694645e127c98e5f96f3bbec331d061acaac3ace2327f9",
            "0x0000000000000000000000000f59477d7517013a496ffc6af6466ac0d869c203",
            "0x0000000000000000000000000f59477d7517013a496ffc6af6466ac0d869c203"
          ],
          "data": "0x",
          "blockHash": "0x14627b7bd49e228e7430e42b365af5b7ed3f22fd285607e20761e3597b63fdce",
          "blockNumber": "0x1b6e59d",
          "transactionHash": "0xf4e754ff7d308c20e0151b7a79e091a448bb9bd37007291b0e890323c4ff1a00",
          "transactionIndex": "0x71",
          "logIndex": "0xd3",
          "removed": false
        }
      ],
      "logsBloom": "0x00000004008000000000000000000000000000000000000400000000000000000000000000000000080000000000000000000000000000000000000000000000000000000000000000000000000000000000000000001008000000000000000000000000000000000000000000000000000000000000000000000000000000000000000000000000000000000000000000000000000000200000000000000000000000000000000000000000000000000000000000000000001200000000100000000000000200000000000000000000000000000000000100000000000000000000000000000000000000000000000000000000000000000000000000000000",
      "type": "0x0",
      "transactionHash": "0xf4e754ff7d308c20e0151b7a79e091a448bb9bd37007291b0e890323c4ff1a00",
      "transactionIndex": "0x71",
      "blockHash": "0x14627b7bd49e228e7430e42b365af5b7ed3f22fd285607e20761e3597b63fdce",
      "blockNumber": "0x1b6e59d",
      "gasUsed": "0xcb2c",
      "effectiveGasPrice": "0x17f68d",
      "from": "0x0f59477d7517013a496ffc6af6466ac0d869c203",
      "to": "0xc5de80a4848367cbda73984cc1054cc08a975894",
      "contractAddress": null,
      "l1BaseFeeScalar": "0x8dd",
      "l1BlobBaseFee": "0x14c8fcf1",
      "l1BlobBaseFeeScalar": "0x101c12",
      "l1Fee": "0x91838d860",
      "l1GasPrice": "0x24dba3c4",
      "l1GasUsed": "0x640"
    },
    {
      "status": "0x1",
      "cumulativeGasUsed": "0x18d415c",
      "logs": [],
      "logsBloom": "0x00000000000000000000000000000000000000000000000000000000000000000000000000000000000000000000000000000000000000000000000000000000000000000000000000000000000000000000000000000000000000000000000000000000000000000000000000000000000000000000000000000000000000000000000000000000000000000000000000000000000000000000000000000000000000000000000000000000000000000000000000000000000000000000000000000000000000000000000000000000000000000000000000000000000000000000000000000000000000000000000000000000000000000000000000000000",
      "type": "0x0",
      "transactionHash": "0xf1fda9e4edb9f0ede1720d3a5dc77585306133c741f7921a5fd1b0e38b4bbeea",
      "transactionIndex": "0x72",
      "blockHash": "0x14627b7bd49e228e7430e42b365af5b7ed3f22fd285607e20761e3597b63fdce",
      "blockNumber": "0x1b6e59d",
      "gasUsed": "0xb5f7",
      "effectiveGasPrice": "0x17f68d",
      "from": "0x0f59477d7517013a496ffc6af6466ac0d869c203",
      "to": "0xc5de80a4848367cbda73984cc1054cc08a975894",
      "contractAddress": null,
      "l1BaseFeeScalar": "0x8dd",
      "l1BlobBaseFee": "0x14c8fcf1",
      "l1BlobBaseFeeScalar": "0x101c12",
      "l1Fee": "0x91838d860",
      "l1GasPrice": "0x24dba3c4",
      "l1GasUsed": "0x640"
    },
    {
      "status": "0x1",
      "cumulativeGasUsed": "0x18df646",
      "logs": [],
      "logsBloom": "0x00000000000000000000000000000000000000000000000000000000000000000000000000000000000000000000000000000000000000000000000000000000000000000000000000000000000000000000000000000000000000000000000000000000000000000000000000000000000000000000000000000000000000000000000000000000000000000000000000000000000000000000000000000000000000000000000000000000000000000000000000000000000000000000000000000000000000000000000000000000000000000000000000000000000000000000000000000000000000000000000000000000000000000000000000000000",
      "type": "0x0",
      "transactionHash": "0x135c2562d94dea0b38f8218ed89b0c4ad4058261f6bab8834c8320865d9a45de",
      "transactionIndex": "0x73",
      "blockHash": "0x14627b7bd49e228e7430e42b365af5b7ed3f22fd285607e20761e3597b63fdce",
      "blockNumber": "0x1b6e59d",
      "gasUsed": "0xb4ea",
      "effectiveGasPrice": "0x17f68d",
      "from": "0x0f59477d7517013a496ffc6af6466ac0d869c203",
      "to": "0xc5de80a4848367cbda73984cc1054cc08a975894",
      "contractAddress": null,
      "l1BaseFeeScalar": "0x8dd",
      "l1BlobBaseFee": "0x14c8fcf1",
      "l1BlobBaseFeeScalar": "0x101c12",
      "l1Fee": "0x91838d860",
      "l1GasPrice": "0x24dba3c4",
      "l1GasUsed": "0x640"
    },
    {
      "status": "0x1",
      "cumulativeGasUsed": "0x18f2552",
      "logs": [],
      "logsBloom": "0x00000000000000000000000000000000000000000000000000000000000000000000000000000000000000000000000000000000000000000000000000000000000000000000000000000000000000000000000000000000000000000000000000000000000000000000000000000000000000000000000000000000000000000000000000000000000000000000000000000000000000000000000000000000000000000000000000000000000000000000000000000000000000000000000000000000000000000000000000000000000000000000000000000000000000000000000000000000000000000000000000000000000000000000000000000000",
      "type": "0x0",
      "transactionHash": "0x35a744c8e18482b30ee14688114a25db2ff82122ad943739f42f8a35a63c88c0",
      "transactionIndex": "0x75",
      "blockHash": "0x14627b7bd49e228e7430e42b365af5b7ed3f22fd285607e20761e3597b63fdce",
      "blockNumber": "0x1b6e59d",
      "gasUsed": "0xb623",
      "effectiveGasPrice": "0x17f68d",
      "from": "0x0f59477d7517013a496ffc6af6466ac0d869c203",
      "to": "0xc5de80a4848367cbda73984cc1054cc08a975894",
      "contractAddress": null,
      "l1BaseFeeScalar": "0x8dd",
      "l1BlobBaseFee": "0x14c8fcf1",
      "l1BlobBaseFeeScalar": "0x101c12",
      "l1Fee": "0x91838d860",
      "l1GasPrice": "0x24dba3c4",
      "l1GasUsed": "0x640"
    },
    {
      "status": "0x1",
      "cumulativeGasUsed": "0x179e6e8",
      "logs": [
        {
          "address": "0xc5de80a4848367cbda73984cc1054cc08a975894",
          "topics": [
            "0xf6391f5c32d9c69d2a47ea670b442974b53935d1edc7fd64eb21e047a839171b",
            "0x8135f02737a6b32709c1f229001b55183df0d6abcb3022e8bae091ad43fd9e6d",
            "0x0000000000000000000000000f59477d7517013a496ffc6af6466ac0d869c203",
            "0x0000000000000000000000000f59477d7517013a496ffc6af6466ac0d869c203"
          ],
          "data": "0x",
          "blockHash": "0xf8ba34c1fbf129bc0baa7a6c50abedc5eb41c023a64cccbaf60a541d6842df2b",
          "blockNumber": "0x1b6e59e",
          "transactionHash": "0x0daa572a2ad45d7a1d3892179472eecb8979379b9f1e48960685e0b2c1838ab6",
          "transactionIndex": "0x55",
          "logIndex": "0x9c",
          "removed": false
        }
      ],
      "logsBloom": "0x00000000000000000000000000000000000000000000000400000000000000000000000000000000080000000000000000200000000000000000000000000000000000000000000000000000000000000000000000001008000000000000000040000000000000000000000000000000000000000000000000000000000000000000000040000000000000000000000000000000000100200000000000000000000000000000000000000000100000000000000000000000000000000000000000000000000200000000000000000000000000000000000000000000000000000000000000000000000000000004000000000000000000000000000000000000",
      "type": "0x0",
      "transactionHash": "0x0daa572a2ad45d7a1d3892179472eecb8979379b9f1e48960685e0b2c1838ab6",
      "transactionIndex": "0x55",
      "blockHash": "0xf8ba34c1fbf129bc0baa7a6c50abedc5eb41c023a64cccbaf60a541d6842df2b",
      "blockNumber": "0x1b6e59e",
      "gasUsed": "0x75e3",
      "effectiveGasPrice": "0x17f68d",
      "from": "0x0f59477d7517013a496ffc6af6466ac0d869c203",
      "to": "0xc5de80a4848367cbda73984cc1054cc08a975894",
      "contractAddress": null,
      "l1BaseFeeScalar": "0x8dd",
      "l1BlobBaseFee": "0x14c8fcf1",
      "l1BlobBaseFeeScalar": "0x101c12",
      "l1Fee": "0x91838d860",
      "l1GasPrice": "0x24dba3c4",
      "l1GasUsed": "0x640"
    },
    {
      "status": "0x1",
      "cumulativeGasUsed": "0x17a5cd7",
      "logs": [
        {
          "address": "0xc5de80a4848367cbda73984cc1054cc08a975894",
          "topics": [
            "0xf6391f5c32d9c69d2a47ea670b442974b53935d1edc7fd64eb21e047a839171b",
            "0xa9783f04da8148a3316ae0711a5359306e6a8cfe393cba07d5b0a87301bb5efd",
            "0x0000000000000000000000000f59477d7517013a496ffc6af6466ac0d869c203",
            "0x0000000000000000000000000f59477d7517013a496ffc6af6466ac0d869c203"
          ],
          "data": "0x",
          "blockHash": "0xf8ba34c1fbf129bc0baa7a6c50abedc5eb41c023a64cccbaf60a541d6842df2b",
          "blockNumber": "0x1b6e59e",
          "transactionHash": "0x3572bf4747e1bf07c0de3a5b00d45febf7ad86afb8d74e031e797f026c8fc9a4",
          "transactionIndex": "0x56",
          "logIndex": "0x9d",
          "removed": false
        }
      ],
      "logsBloom": "0x00000000000000000000000000000000000000000002000400000000000000000000000000000000080000000000000000200000000000000000000000000001000000000000000000000000000000000000000000001008000000000000000040000000000000000000000000000000000000000000000000000000000000000000000040000000000000000000000000000000000000200000000000000000000000000000000000000000000000000000000000000000000000000000000000000000000200000000400000000000000000000000000000000000000000000000000000000000000000000000000000000000000000000000000000000000",
      "type": "0x0",
      "transactionHash": "0x3572bf4747e1bf07c0de3a5b00d45febf7ad86afb8d74e031e797f026c8fc9a4",
      "transactionIndex": "0x56",
      "blockHash": "0xf8ba34c1fbf129bc0baa7a6c50abedc5eb41c023a64cccbaf60a541d6842df2b",
      "blockNumber": "0x1b6e59e",
      "gasUsed": "0x75ef",
      "effectiveGasPrice": "0x17f68d",
      "from": "0x0f59477d7517013a496ffc6af6466ac0d869c203",
      "to": "0xc5de80a4848367cbda73984cc1054cc08a975894",
      "contractAddress": null,
      "l1BaseFeeScalar": "0x8dd",
      "l1BlobBaseFee": "0x14c8fcf1",
      "l1BlobBaseFeeScalar": "0x101c12",
      "l1Fee": "0x91838d860",
      "l1GasPrice": "0x24dba3c4",
      "l1GasUsed": "0x640"
    },
    {
      "status": "0x1",
      "cumulativeGasUsed": "0x17ad2ba",
      "logs": [
        {
          "address": "0xc5de80a4848367cbda73984cc1054cc08a975894",
          "topics": [
            "0xf6391f5c32d9c69d2a47ea670b442974b53935d1edc7fd64eb21e047a839171b",
            "0x9d98d3d08f0062b192694645e127c98e5f96f3bbec331d061acaac3ace2327f9",
            "0x0000000000000000000000000f59477d7517013a496ffc6af6466ac0d869c203",
            "0x0000000000000000000000000f59477d7517013a496ffc6af6466ac0d869c203"
          ],
          "data": "0x",
          "blockHash": "0xf8ba34c1fbf129bc0baa7a6c50abedc5eb41c023a64cccbaf60a541d6842df2b",
          "blockNumber": "0x1b6e59e",
          "transactionHash": "0x374575dda28a611df93bd3ab206a88b1357734875680f6ef8912aa288382bfca",
          "transactionIndex": "0x57",
          "logIndex": "0x9e",
          "removed": false
        }
      ],
      "logsBloom": "0x00000000008000000000000000000000000000000000000400000000000000000000000000000000080000000000000000200000000000000000000000000000000000000000000000000000000000000000000000001008000000000000000040000000000000000000000000000000000000000000000000000000000000000000000040000000000000000000000000000000000000200000000000000000000000000000000000000000000000000000000000000000000200000000100000000000000200000000000000000000000000000000000000000000000000000000000000000000000000000000000000000000000000000000000000000000",
      "type": "0x0",
      "transactionHash": "0x374575dda28a611df93bd3ab206a88b1357734875680f6ef8912aa288382bfca",
      "transactionIndex": "0x57",
      "blockHash": "0xf8ba34c1fbf129bc0baa7a6c50abedc5eb41c023a64cccbaf60a541d6842df2b",
      "blockNumber": "0x1b6e59e",
      "gasUsed": "0x75e3",
      "effectiveGasPrice": "0x17f68d",
      "from": "0x0f59477d7517013a496ffc6af6466ac0d869c203",
      "to": "0xc5de80a4848367cbda73984cc1054cc08a975894",
      "contractAddress": null,
      "l1BaseFeeScalar": "0x8dd",
      "l1BlobBaseFee": "0x14c8fcf1",
      "l1BlobBaseFeeScalar": "0x101c12",
      "l1Fee": "0x91838d860",
      "l1GasPrice": "0x24dba3c4",
      "l1GasUsed": "0x640"
    }
  ],
  "libraries": [],
  "pending": [],
  "returns": {},
  "timestamp": 1744316448,
  "chain": 8453,
  "commit": "d7c0947"
}