{
  "transactions": [
    {
      "hash": "0x590dc9486321628b8351f394b8b59c66534220814d9202d276a7d1b3a5bed734",
      "transactionType": "CREATE",
      "contractName": "AlignmentManagerV1",
      "contractAddress": "0x0c81e1c3e2cfb9f247b809c06927f2bb5202c3e8",
      "function": null,
      "arguments": [
        "[0x0F59477D7517013A496fFC6aF6466Ac0d869C203, 0xc0f0E1512D6A0A77ff7b9C172405D1B0d73565Bf]",
        "[0xc0f0E1512D6A0A77ff7b9C172405D1B0d73565Bf]",
        "[0xc0f0E1512D6A0A77ff7b9C172405D1B0d73565Bf]"
      ],
      "transaction": {
        "from": "0x0f59477d7517013a496ffc6af6466ac0d869c203",
        "gas": "0x1c5af6",
        "value": "0x0",
        "input": "0x608060405234801561000f575f80fd5b50604051611be8380380611be883398181016040528101906100319190610461565b5f5b8351811015610076576100685f801b85838151811061005557610054610505565b5b602002602001015161014760201b60201c565b508080600101915050610033565b505f5b82518110156100da576100cc7f8135f02737a6b32709c1f229001b55183df0d6abcb3022e8bae091ad43fd9e6d8483815181106100b9576100b8610505565b5b602002602001015161014760201b60201c565b508080600101915050610079565b505f5b815181101561013e576101307fa9783f04da8148a3316ae0711a5359306e6a8cfe393cba07d5b0a87301bb5efd83838151811061011d5761011c610505565b5b602002602001015161014760201b60201c565b5080806001019150506100dd565b50505050610532565b5f610158838361023c60201b60201c565b6102325760015f808581526020019081526020015f205f015f8473ffffffffffffffffffffffffffffffffffffffff1673ffffffffffffffffffffffffffffffffffffffff1681526020019081526020015f205f6101000a81548160ff0219169083151502179055506101cf61029f60201b60201c565b73ffffffffffffffffffffffffffffffffffffffff168273ffffffffffffffffffffffffffffffffffffffff16847f2f8788117e7eff1d82e926ec794901d17c78024a50270940304540a733656f0d60405160405180910390a460019050610236565b5f90505b92915050565b5f805f8481526020019081526020015f205f015f8373ffffffffffffffffffffffffffffffffffffffff1673ffffffffffffffffffffffffffffffffffffffff1681526020019081526020015f205f9054906101000a900460ff16905092915050565b5f33905090565b5f604051905090565b5f80fd5b5f80fd5b5f80fd5b5f601f19601f8301169050919050565b7f4e487b71000000000000000000000000000000000000000000000000000000005f52604160045260245ffd5b610301826102bb565b810181811067ffffffffffffffff821117156103205761031f6102cb565b5b80604052505050565b5f6103326102a6565b905061033e82826102f8565b919050565b5f67ffffffffffffffff82111561035d5761035c6102cb565b5b602082029050602081019050919050565b5f80fd5b5f73ffffffffffffffffffffffffffffffffffffffff82169050919050565b5f61039b82610372565b9050919050565b6103ab81610391565b81146103b5575f80fd5b50565b5f815190506103c6816103a2565b92915050565b5f6103de6103d984610343565b610329565b905080838252602082019050602084028301858111156104015761040061036e565b5b835b8181101561042a578061041688826103b8565b845260208401935050602081019050610403565b5050509392505050565b5f82601f830112610448576104476102b7565b5b81516104588482602086016103cc565b91505092915050565b5f805f60608486031215610478576104776102af565b5b5f84015167ffffffffffffffff811115610495576104946102b3565b5b6104a186828701610434565b935050602084015167ffffffffffffffff8111156104c2576104c16102b3565b5b6104ce86828701610434565b925050604084015167ffffffffffffffff8111156104ef576104ee6102b3565b5b6104fb86828701610434565b9150509250925092565b7f4e487b71000000000000000000000000000000000000000000000000000000005f52603260045260245ffd5b6116a98061053f5f395ff3fe608060405260043610610113575f3560e01c80636966b6ec1161009f578063c097032811610063578063c0970328146103ad578063c65d5ff2146103d7578063c80f7b4c146103ff578063d547741f14610429578063f3fef3a31461045157610113565b80636966b6ec146102a557806391d14854146102e15780639892a3731461031d5780639d28b50614610359578063a217fddf1461038357610113565b8063251056e1116100e6578063251056e1146101e75780632f2ff15d1461021157806330e865a81461023957806336568abe14610261578063427aa6011461028957610113565b806301ffc9a714610117578063069bbf171461015357806308d074c91461016f578063248a9ca3146101ab575b5f80fd5b348015610122575f80fd5b5061013d600480360381019061013891906110da565b610479565b60405161014a919061111f565b60405180910390f35b61016d60048036038101906101689190611192565b6104f2565b005b34801561017a575f80fd5b5061019560048036038101906101909190611192565b6106a7565b6040516101a291906111d5565b60405180910390f35b3480156101b6575f80fd5b506101d160048036038101906101cc9190611221565b6106ed565b6040516101de919061125b565b60405180910390f35b3480156101f2575f80fd5b506101fb610709565b604051610208919061125b565b60405180910390f35b34801561021c575f80fd5b5061023760048036038101906102329190611274565b61072d565b005b348015610244575f80fd5b5061025f600480360381019061025a9190611192565b61074f565b005b34801561026c575f80fd5b5061028760048036038101906102829190611274565b6107bd565b005b6102a3600480360381019061029e9190611192565b610838565b005b3480156102b0575f80fd5b506102cb60048036038101906102c69190611192565b610af8565b6040516102d8919061111f565b60405180910390f35b3480156102ec575f80fd5b5061030760048036038101906103029190611274565b610b43565b604051610314919061111f565b60405180910390f35b348015610328575f80fd5b50610343600480360381019061033e9190611192565b610ba6565b6040516103509190611369565b60405180910390f35b348015610364575f80fd5b5061036d610c6e565b60405161037a919061125b565b60405180910390f35b34801561038e575f80fd5b50610397610c92565b6040516103a4919061125b565b60405180910390f35b3480156103b8575f80fd5b506103c1610c98565b6040516103ce9190611398565b60405180910390f35b3480156103e2575f80fd5b506103fd60048036038101906103f891906113db565b610cc0565b005b34801561040a575f80fd5b50610413610cf5565b60405161042091906111d5565b60405180910390f35b348015610434575f80fd5b5061044f600480360381019061044a9190611274565b610cfe565b005b34801561045c575f80fd5b5061047760048036038101906104729190611406565b610d20565b005b5f7f7965db0b000000000000000000000000000000000000000000000000000000007bffffffffffffffffffffffffffffffffffffffffffffffffffffffff1916827bffffffffffffffffffffffffffffffffffffffffffffffffffffffff191614806104eb57506104ea82610dda565b5b9050919050565b60025434101561052e576040517f8a0d377900000000000000000000000000000000000000000000000000000000815260040160405180910390fd5b60035f8273ffffffffffffffffffffffffffffffffffffffff1673ffffffffffffffffffffffffffffffffffffffff1681526020019081526020015f205f81548092919061057b90611471565b919050555060045f3373ffffffffffffffffffffffffffffffffffffffff1673ffffffffffffffffffffffffffffffffffffffff1681526020019081526020015f2081908060018154018082558091505060019003905f5260205f20015f9091909190916101000a81548173ffffffffffffffffffffffffffffffffffffffff021916908373ffffffffffffffffffffffffffffffffffffffff16021790555060015f9054906101000a900473ffffffffffffffffffffffffffffffffffffffff1673ffffffffffffffffffffffffffffffffffffffff16630dc38a6782336040518363ffffffff1660e01b81526004016106779291906114b8565b5f604051808303815f87803b15801561068e575f80fd5b505af11580156106a0573d5f803e3d5ffd5b5050505050565b5f60035f8373ffffffffffffffffffffffffffffffffffffffff1673ffffffffffffffffffffffffffffffffffffffff1681526020019081526020015f20549050919050565b5f805f8381526020019081526020015f20600101549050919050565b7fa9783f04da8148a3316ae0711a5359306e6a8cfe393cba07d5b0a87301bb5efd81565b610736826106ed565b61073f81610e43565b6107498383610e57565b50505050565b7f8135f02737a6b32709c1f229001b55183df0d6abcb3022e8bae091ad43fd9e6d61077981610e43565b8160015f6101000a81548173ffffffffffffffffffffffffffffffffffffffff021916908373ffffffffffffffffffffffffffffffffffffffff1602179055505050565b6107c5610f40565b73ffffffffffffffffffffffffffffffffffffffff168173ffffffffffffffffffffffffffffffffffffffff1614610829576040517f6697b23200000000000000000000000000000000000000000000000000000000815260040160405180910390fd5b6108338282610f47565b505050565b60035f8273ffffffffffffffffffffffffffffffffffffffff1673ffffffffffffffffffffffffffffffffffffffff1681526020019081526020015f205f815480929190610885906114df565b91905055505f60045f3373ffffffffffffffffffffffffffffffffffffffff1673ffffffffffffffffffffffffffffffffffffffff1681526020019081526020015f2090505f80805f90505b8380549050811015610963578473ffffffffffffffffffffffffffffffffffffffff1684828154811061090757610906611506565b5b905f5260205f20015f9054906101000a900473ffffffffffffffffffffffffffffffffffffffff1673ffffffffffffffffffffffffffffffffffffffff16036109565780915060019250610963565b80806001019150506108d1565b508115610a69576001838054905061097b9190611533565b8114610a255782600184805490506109939190611533565b815481106109a4576109a3611506565b5b905f5260205f20015f9054906101000a900473ffffffffffffffffffffffffffffffffffffffff168382815481106109df576109de611506565b5b905f5260205f20015f6101000a81548173ffffffffffffffffffffffffffffffffffffffff021916908373ffffffffffffffffffffffffffffffffffffffff1602179055505b82805480610a3657610a35611566565b5b600190038181905f5260205f20015f6101000a81549073ffffffffffffffffffffffffffffffffffffffff021916905590555b60015f9054906101000a900473ffffffffffffffffffffffffffffffffffffffff1673ffffffffffffffffffffffffffffffffffffffff16638750872385336040518363ffffffff1660e01b8152600401610ac59291906114b8565b5f604051808303815f87803b158015610adc575f80fd5b505af1158015610aee573d5f803e3d5ffd5b5050505050505050565b5f8060045f8473ffffffffffffffffffffffffffffffffffffffff1673ffffffffffffffffffffffffffffffffffffffff1681526020019081526020015f2080549050119050919050565b5f805f8481526020019081526020015f205f015f8373ffffffffffffffffffffffffffffffffffffffff1673ffffffffffffffffffffffffffffffffffffffff1681526020019081526020015f205f9054906101000a900460ff16905092915050565b606060045f8373ffffffffffffffffffffffffffffffffffffffff1673ffffffffffffffffffffffffffffffffffffffff1681526020019081526020015f20805480602002602001604051908101604052809291908181526020018280548015610c6257602002820191905f5260205f20905b815f9054906101000a900473ffffffffffffffffffffffffffffffffffffffff1673ffffffffffffffffffffffffffffffffffffffff1681526020019060010190808311610c19575b50505050509050919050565b7f8135f02737a6b32709c1f229001b55183df0d6abcb3022e8bae091ad43fd9e6d81565b5f801b81565b5f60015f9054906101000a900473ffffffffffffffffffffffffffffffffffffffff16905090565b7fa9783f04da8148a3316ae0711a5359306e6a8cfe393cba07d5b0a87301bb5efd610cea81610e43565b816002819055505050565b5f600254905090565b610d07826106ed565b610d1081610e43565b610d1a8383610f47565b50505050565b5f801b610d2c81610e43565b5f8373ffffffffffffffffffffffffffffffffffffffff1683604051610d51906115c0565b5f6040518083038185875af1925050503d805f8114610d8b576040519150601f19603f3d011682016040523d82523d5f602084013e610d90565b606091505b5050905080610dd4576040517f08c379a0000000000000000000000000000000000000000000000000000000008152600401610dcb9061162e565b60405180910390fd5b50505050565b5f7f01ffc9a7000000000000000000000000000000000000000000000000000000007bffffffffffffffffffffffffffffffffffffffffffffffffffffffff1916827bffffffffffffffffffffffffffffffffffffffffffffffffffffffff1916149050919050565b610e5481610e4f610f40565b611030565b50565b5f610e628383610b43565b610f365760015f808581526020019081526020015f205f015f8473ffffffffffffffffffffffffffffffffffffffff1673ffffffffffffffffffffffffffffffffffffffff1681526020019081526020015f205f6101000a81548160ff021916908315150217905550610ed3610f40565b73ffffffffffffffffffffffffffffffffffffffff168273ffffffffffffffffffffffffffffffffffffffff16847f2f8788117e7eff1d82e926ec794901d17c78024a50270940304540a733656f0d60405160405180910390a460019050610f3a565b5f90505b92915050565b5f33905090565b5f610f528383610b43565b15611026575f805f8581526020019081526020015f205f015f8473ffffffffffffffffffffffffffffffffffffffff1673ffffffffffffffffffffffffffffffffffffffff1681526020019081526020015f205f6101000a81548160ff021916908315150217905550610fc3610f40565b73ffffffffffffffffffffffffffffffffffffffff168273ffffffffffffffffffffffffffffffffffffffff16847ff6391f5c32d9c69d2a47ea670b442974b53935d1edc7fd64eb21e047a839171b60405160405180910390a46001905061102a565b5f90505b92915050565b61103a8282610b43565b61107d5780826040517fe2517d3f00000000000000000000000000000000000000000000000000000000815260040161107492919061164c565b60405180910390fd5b5050565b5f80fd5b5f7fffffffff0000000000000000000000000000000000000000000000000000000082169050919050565b6110b981611085565b81146110c3575f80fd5b50565b5f813590506110d4816110b0565b92915050565b5f602082840312156110ef576110ee611081565b5b5f6110fc848285016110c6565b91505092915050565b5f8115159050919050565b61111981611105565b82525050565b5f6020820190506111325f830184611110565b92915050565b5f73ffffffffffffffffffffffffffffffffffffffff82169050919050565b5f61116182611138565b9050919050565b61117181611157565b811461117b575f80fd5b50565b5f8135905061118c81611168565b92915050565b5f602082840312156111a7576111a6611081565b5b5f6111b48482850161117e565b91505092915050565b5f819050919050565b6111cf816111bd565b82525050565b5f6020820190506111e85f8301846111c6565b92915050565b5f819050919050565b611200816111ee565b811461120a575f80fd5b50565b5f8135905061121b816111f7565b92915050565b5f6020828403121561123657611235611081565b5b5f6112438482850161120d565b91505092915050565b611255816111ee565b82525050565b5f60208201905061126e5f83018461124c565b92915050565b5f806040838503121561128a57611289611081565b5b5f6112978582860161120d565b92505060206112a88582860161117e565b9150509250929050565b5f81519050919050565b5f82825260208201905092915050565b5f819050602082019050919050565b6112e481611157565b82525050565b5f6112f583836112db565b60208301905092915050565b5f602082019050919050565b5f611317826112b2565b61132181856112bc565b935061132c836112cc565b805f5b8381101561135c57815161134388826112ea565b975061134e83611301565b92505060018101905061132f565b5085935050505092915050565b5f6020820190508181035f830152611381818461130d565b905092915050565b61139281611157565b82525050565b5f6020820190506113ab5f830184611389565b92915050565b6113ba816111bd565b81146113c4575f80fd5b50565b5f813590506113d5816113b1565b92915050565b5f602082840312156113f0576113ef611081565b5b5f6113fd848285016113c7565b91505092915050565b5f806040838503121561141c5761141b611081565b5b5f6114298582860161117e565b925050602061143a858286016113c7565b9150509250929050565b7f4e487b71000000000000000000000000000000000000000000000000000000005f52601160045260245ffd5b5f61147b826111bd565b91507fffffffffffffffffffffffffffffffffffffffffffffffffffffffffffffffff82036114ad576114ac611444565b5b600182019050919050565b5f6040820190506114cb5f830185611389565b6114d86020830184611389565b9392505050565b5f6114e9826111bd565b91505f82036114fb576114fa611444565b5b600182039050919050565b7f4e487b71000000000000000000000000000000000000000000000000000000005f52603260045260245ffd5b5f61153d826111bd565b9150611548836111bd565b92508282039050818111156115605761155f611444565b5b92915050565b7f4e487b71000000000000000000000000000000000000000000000000000000005f52603160045260245ffd5b5f81905092915050565b50565b5f6115ab5f83611593565b91506115b68261159d565b5f82019050919050565b5f6115ca826115a0565b9150819050919050565b5f82825260208201905092915050565b7f4661696c656420746f2073656e642045746865720000000000000000000000005f82015250565b5f6116186014836115d4565b9150611623826115e4565b602082019050919050565b5f6020820190508181035f8301526116458161160c565b9050919050565b5f60408201905061165f5f830185611389565b61166c602083018461124c565b939250505056fea2646970667358221220fa018ae5b2793f62ef3bbf56436ed28e775ef48e15c86179fab67991e1616e3164736f6c634300081a0033000000000000000000000000000000000000000000000000000000000000006000000000000000000000000000000000000000000000000000000000000000c0000000000000000000000000000000000000000000000000000000000000010000000000000000000000000000000000000000000000000000000000000000020000000000000000000000000f59477d7517013a496ffc6af6466ac0d869c203000000000000000000000000c0f0e1512d6a0a77ff7b9c172405d1b0d73565bf0000000000000000000000000000000000000000000000000000000000000001000000000000000000000000c0f0e1512d6a0a77ff7b9c172405d1b0d73565bf0000000000000000000000000000000000000000000000000000000000000001000000000000000000000000c0f0e1512d6a0a77ff7b9c172405d1b0d73565bf",
        "nonce": "0x0",
        "chainId": "0x2105"
      },
      "additionalContracts": [],
      "isFixedGasLimit": false
    },
    {
      "hash": "0x54ca3b0b78b77436e3b115774944ff282da3b775c52e6a25e478f2b0f65b4b19",
      "transactionType": "CREATE",
      "contractName": "AlignmentV1",
      "contractAddress": "0x1056d4ee7d2cbca3b1b8e8f923d2f14f75859ae2",
      "function": null,
      "arguments": [
        "[0x0F59477D7517013A496fFC6aF6466Ac0d869C203, 0xc0f0E1512D6A0A77ff7b9C172405D1B0d73565Bf]",
        "[0x0c81E1c3e2cfB9F247b809c06927f2bB5202C3e8]",
        "[0x0c81E1c3e2cfB9F247b809c06927f2bB5202C3e8]"
      ],
      "transaction": {
        "from": "0x0f59477d7517013a496ffc6af6466ac0d869c203",
        "gas": "0x10353d",
        "value": "0x0",
        "input": "0x608060405234801561000f575f80fd5b506040516110d03803806110d083398181016040528101906100319190610461565b5f5b8351811015610076576100685f801b85838151811061005557610054610505565b5b602002602001015161014760201b60201c565b508080600101915050610033565b505f5b82518110156100da576100cc7fc2825d737a264424cb2f2b7cd741b567aae783c235a5ef0089f07e98a100cb4b8483815181106100b9576100b8610505565b5b602002602001015161014760201b60201c565b508080600101915050610079565b505f5b815181101561013e576101307fffa5c698e3a2cbac270d1e1341a180923b70242637cb060413b9d1afe1f7175f83838151811061011d5761011c610505565b5b602002602001015161014760201b60201c565b5080806001019150506100dd565b50505050610532565b5f610158838361023c60201b60201c565b6102325760015f808581526020019081526020015f205f015f8473ffffffffffffffffffffffffffffffffffffffff1673ffffffffffffffffffffffffffffffffffffffff1681526020019081526020015f205f6101000a81548160ff0219169083151502179055506101cf61029f60201b60201c565b73ffffffffffffffffffffffffffffffffffffffff168273ffffffffffffffffffffffffffffffffffffffff16847f2f8788117e7eff1d82e926ec794901d17c78024a50270940304540a733656f0d60405160405180910390a460019050610236565b5f90505b92915050565b5f805f8481526020019081526020015f205f015f8373ffffffffffffffffffffffffffffffffffffffff1673ffffffffffffffffffffffffffffffffffffffff1681526020019081526020015f205f9054906101000a900460ff16905092915050565b5f33905090565b5f604051905090565b5f80fd5b5f80fd5b5f80fd5b5f601f19601f8301169050919050565b7f4e487b71000000000000000000000000000000000000000000000000000000005f52604160045260245ffd5b610301826102bb565b810181811067ffffffffffffffff821117156103205761031f6102cb565b5b80604052505050565b5f6103326102a6565b905061033e82826102f8565b919050565b5f67ffffffffffffffff82111561035d5761035c6102cb565b5b602082029050602081019050919050565b5f80fd5b5f73ffffffffffffffffffffffffffffffffffffffff82169050919050565b5f61039b82610372565b9050919050565b6103ab81610391565b81146103b5575f80fd5b50565b5f815190506103c6816103a2565b92915050565b5f6103de6103d984610343565b610329565b905080838252602082019050602084028301858111156104015761040061036e565b5b835b8181101561042a578061041688826103b8565b845260208401935050602081019050610403565b5050509392505050565b5f82601f830112610448576104476102b7565b5b81516104588482602086016103cc565b91505092915050565b5f805f60608486031215610478576104776102af565b5b5f84015167ffffffffffffffff811115610495576104946102b3565b5b6104a186828701610434565b935050602084015167ffffffffffffffff8111156104c2576104c16102b3565b5b6104ce86828701610434565b925050604084015167ffffffffffffffff8111156104ef576104ee6102b3565b5b6104fb86828701610434565b9150509250925092565b7f4e487b71000000000000000000000000000000000000000000000000000000005f52603260045260245ffd5b610b918061053f5f395ff3fe608060405234801561000f575f80fd5b50600436106100b2575f3560e01c806391d148541161006f57806391d14854146101865780639eb24b9c146101b6578063a15e6256146101e6578063a217fddf14610204578063d547741f14610222578063f7ca35901461023e576100b2565b806301ffc9a7146100b65780630dc38a67146100e6578063248a9ca3146101025780632f2ff15d1461013257806336568abe1461014e578063875087231461016a575b5f80fd5b6100d060048036038101906100cb919061096b565b61025c565b6040516100dd91906109b0565b60405180910390f35b61010060048036038101906100fb9190610a23565b6102d5565b005b61011c60048036038101906101179190610a94565b610393565b6040516101299190610ace565b60405180910390f35b61014c60048036038101906101479190610ae7565b6103af565b005b61016860048036038101906101639190610ae7565b6103d1565b005b610184600480360381019061017f9190610a23565b61044c565b005b6101a0600480360381019061019b9190610ae7565b61050a565b6040516101ad91906109b0565b60405180910390f35b6101d060048036038101906101cb9190610a23565b61056d565b6040516101dd91906109b0565b60405180910390f35b6101ee6105fb565b6040516101fb9190610ace565b60405180910390f35b61020c61061f565b6040516102199190610ace565b60405180910390f35b61023c60048036038101906102379190610ae7565b610625565b005b610246610647565b6040516102539190610ace565b60405180910390f35b5f7f7965db0b000000000000000000000000000000000000000000000000000000007bffffffffffffffffffffffffffffffffffffffffffffffffffffffff1916827bffffffffffffffffffffffffffffffffffffffffffffffffffffffff191614806102ce57506102cd8261066b565b5b9050919050565b7fc2825d737a264424cb2f2b7cd741b567aae783c235a5ef0089f07e98a100cb4b6102ff816106d4565b6001805f8573ffffffffffffffffffffffffffffffffffffffff1673ffffffffffffffffffffffffffffffffffffffff1681526020019081526020015f205f8473ffffffffffffffffffffffffffffffffffffffff1673ffffffffffffffffffffffffffffffffffffffff1681526020019081526020015f205f6101000a81548160ff021916908315150217905550505050565b5f805f8381526020019081526020015f20600101549050919050565b6103b882610393565b6103c1816106d4565b6103cb83836106e8565b50505050565b6103d96107d1565b73ffffffffffffffffffffffffffffffffffffffff168173ffffffffffffffffffffffffffffffffffffffff161461043d576040517f6697b23200000000000000000000000000000000000000000000000000000000815260040160405180910390fd5b61044782826107d8565b505050565b7fffa5c698e3a2cbac270d1e1341a180923b70242637cb060413b9d1afe1f7175f610476816106d4565b5f60015f8573ffffffffffffffffffffffffffffffffffffffff1673ffffffffffffffffffffffffffffffffffffffff1681526020019081526020015f205f8473ffffffffffffffffffffffffffffffffffffffff1673ffffffffffffffffffffffffffffffffffffffff1681526020019081526020015f205f6101000a81548160ff021916908315150217905550505050565b5f805f8481526020019081526020015f205f015f8373ffffffffffffffffffffffffffffffffffffffff1673ffffffffffffffffffffffffffffffffffffffff1681526020019081526020015f205f9054906101000a900460ff16905092915050565b5f60015f8473ffffffffffffffffffffffffffffffffffffffff1673ffffffffffffffffffffffffffffffffffffffff1681526020019081526020015f205f8373ffffffffffffffffffffffffffffffffffffffff1673ffffffffffffffffffffffffffffffffffffffff1681526020019081526020015f205f9054906101000a900460ff16905092915050565b7fffa5c698e3a2cbac270d1e1341a180923b70242637cb060413b9d1afe1f7175f81565b5f801b81565b61062e82610393565b610637816106d4565b61064183836107d8565b50505050565b7fc2825d737a264424cb2f2b7cd741b567aae783c235a5ef0089f07e98a100cb4b81565b5f7f01ffc9a7000000000000000000000000000000000000000000000000000000007bffffffffffffffffffffffffffffffffffffffffffffffffffffffff1916827bffffffffffffffffffffffffffffffffffffffffffffffffffffffff1916149050919050565b6106e5816106e06107d1565b6108c1565b50565b5f6106f3838361050a565b6107c75760015f808581526020019081526020015f205f015f8473ffffffffffffffffffffffffffffffffffffffff1673ffffffffffffffffffffffffffffffffffffffff1681526020019081526020015f205f6101000a81548160ff0219169083151502179055506107646107d1565b73ffffffffffffffffffffffffffffffffffffffff168273ffffffffffffffffffffffffffffffffffffffff16847f2f8788117e7eff1d82e926ec794901d17c78024a50270940304540a733656f0d60405160405180910390a4600190506107cb565b5f90505b92915050565b5f33905090565b5f6107e3838361050a565b156108b7575f805f8581526020019081526020015f205f015f8473ffffffffffffffffffffffffffffffffffffffff1673ffffffffffffffffffffffffffffffffffffffff1681526020019081526020015f205f6101000a81548160ff0219169083151502179055506108546107d1565b73ffffffffffffffffffffffffffffffffffffffff168273ffffffffffffffffffffffffffffffffffffffff16847ff6391f5c32d9c69d2a47ea670b442974b53935d1edc7fd64eb21e047a839171b60405160405180910390a4600190506108bb565b5f90505b92915050565b6108cb828261050a565b61090e5780826040517fe2517d3f000000000000000000000000000000000000000000000000000000008152600401610905929190610b34565b60405180910390fd5b5050565b5f80fd5b5f7fffffffff0000000000000000000000000000000000000000000000000000000082169050919050565b61094a81610916565b8114610954575f80fd5b50565b5f8135905061096581610941565b92915050565b5f602082840312156109805761097f610912565b5b5f61098d84828501610957565b91505092915050565b5f8115159050919050565b6109aa81610996565b82525050565b5f6020820190506109c35f8301846109a1565b92915050565b5f73ffffffffffffffffffffffffffffffffffffffff82169050919050565b5f6109f2826109c9565b9050919050565b610a02816109e8565b8114610a0c575f80fd5b50565b5f81359050610a1d816109f9565b92915050565b5f8060408385031215610a3957610a38610912565b5b5f610a4685828601610a0f565b9250506020610a5785828601610a0f565b9150509250929050565b5f819050919050565b610a7381610a61565b8114610a7d575f80fd5b50565b5f81359050610a8e81610a6a565b92915050565b5f60208284031215610aa957610aa8610912565b5b5f610ab684828501610a80565b91505092915050565b610ac881610a61565b82525050565b5f602082019050610ae15f830184610abf565b92915050565b5f8060408385031215610afd57610afc610912565b5b5f610b0a85828601610a80565b9250506020610b1b85828601610a0f565b9150509250929050565b610b2e816109e8565b82525050565b5f604082019050610b475f830185610b25565b610b546020830184610abf565b939250505056fea2646970667358221220194563283bc4de3956287c90e711ee49e0759910ab102bfebe89bd42abd9b7c764736f6c634300081a0033000000000000000000000000000000000000000000000000000000000000006000000000000000000000000000000000000000000000000000000000000000c0000000000000000000000000000000000000000000000000000000000000010000000000000000000000000000000000000000000000000000000000000000020000000000000000000000000f59477d7517013a496ffc6af6466ac0d869c203000000000000000000000000c0f0e1512d6a0a77ff7b9c172405d1b0d73565bf00000000000000000000000000000000000000000000000000000000000000010000000000000000000000000c81e1c3e2cfb9f247b809c06927f2bb5202c3e800000000000000000000000000000000000000000000000000000000000000010000000000000000000000000c81e1c3e2cfb9f247b809c06927f2bb5202c3e8",
        "nonce": "0x1",
        "chainId": "0x2105"
      },
      "additionalContracts": [],
      "isFixedGasLimit": false
    },
    {
      "hash": "0xbc471509cf3ec6bb277809198c9c6426134be3e47018f21bad7bb7d9a7e9d7a9",
      "transactionType": "CALL",
      "contractName": "AlignmentManagerV1",
      "contractAddress": "0x0c81e1c3e2cfb9f247b809c06927f2bb5202c3e8",
      "function": "grantRole(bytes32,address)",
      "arguments": [
        "0x8135f02737a6b32709c1f229001b55183df0d6abcb3022e8bae091ad43fd9e6d",
        "0x0F59477D7517013A496fFC6aF6466Ac0d869C203"
      ],
      "transaction": {
        "from": "0x0f59477d7517013a496ffc6af6466ac0d869c203",
        "to": "0x0c81e1c3e2cfb9f247b809c06927f2bb5202c3e8",
        "gas": "0x118a0",
        "value": "0x0",
        "input": "0x2f2ff15d8135f02737a6b32709c1f229001b55183df0d6abcb3022e8bae091ad43fd9e6d0000000000000000000000000f59477d7517013a496ffc6af6466ac0d869c203",
        "nonce": "0x2",
        "chainId": "0x2105"
      },
      "additionalContracts": [],
      "isFixedGasLimit": false
    },
    {
      "hash": "0x28049fd73aa560bbc4cea3bc397133ebc6050a194f2414f8af9354f828a07e7f",
      "transactionType": "CALL",
      "contractName": "AlignmentManagerV1",
      "contractAddress": "0x0c81e1c3e2cfb9f247b809c06927f2bb5202c3e8",
      "function": "grantRole(bytes32,address)",
      "arguments": [
        "0xa9783f04da8148a3316ae0711a5359306e6a8cfe393cba07d5b0a87301bb5efd",
        "0x0F59477D7517013A496fFC6aF6466Ac0d869C203"
      ],
      "transaction": {
        "from": "0x0f59477d7517013a496ffc6af6466ac0d869c203",
        "to": "0x0c81e1c3e2cfb9f247b809c06927f2bb5202c3e8",
        "gas": "0x118b1",
        "value": "0x0",
        "input": "0x2f2ff15da9783f04da8148a3316ae0711a5359306e6a8cfe393cba07d5b0a87301bb5efd0000000000000000000000000f59477d7517013a496ffc6af6466ac0d869c203",
        "nonce": "0x3",
        "chainId": "0x2105"
      },
      "additionalContracts": [],
      "isFixedGasLimit": false
    },
    {
      "hash": "0xa9eb9bfb605c6638e8f509b451efde3b174a1c94b7da4c2c2d886751986408aa",
      "transactionType": "CALL",
      "contractName": "AlignmentManagerV1",
      "contractAddress": "0x0c81e1c3e2cfb9f247b809c06927f2bb5202c3e8",
      "function": "setAlignmentContract(address)",
      "arguments": [
        "0x1056d4eE7D2CbCa3B1b8E8f923D2F14f75859ae2"
      ],
      "transaction": {
        "from": "0x0f59477d7517013a496ffc6af6466ac0d869c203",
        "to": "0x0c81e1c3e2cfb9f247b809c06927f2bb5202c3e8",
        "gas": "0xfb56",
        "value": "0x0",
        "input": "0x30e865a80000000000000000000000001056d4ee7d2cbca3b1b8e8f923d2f14f75859ae2",
        "nonce": "0x4",
        "chainId": "0x2105"
      },
      "additionalContracts": [],
      "isFixedGasLimit": false
    },
    {
      "hash": "0x5d500987940229272c111b1b873153355db6949415e3c234bc7550a64bc9bc67",
      "transactionType": "CALL",
      "contractName": "AlignmentManagerV1",
      "contractAddress": "0x0c81e1c3e2cfb9f247b809c06927f2bb5202c3e8",
      "function": "setAlignmentCost(uint256)",
      "arguments": [
        "860000000000000"
      ],
      "transaction": {
        "from": "0x0f59477d7517013a496ffc6af6466ac0d869c203",
        "to": "0x0c81e1c3e2cfb9f247b809c06927f2bb5202c3e8",
        "gas": "0xf9c4",
        "value": "0x0",
        "input": "0xc65d5ff200000000000000000000000000000000000000000000000000030e2a5a81c000",
        "nonce": "0x5",
        "chainId": "0x2105"
      },
      "additionalContracts": [],
      "isFixedGasLimit": false
    },
    {
      "hash": "0x52372899ffcc092ed37a0a1b00e092d0f706f0c424218e452dd2ae489464b49c",
      "transactionType": "CALL",
      "contractName": "AlignmentManagerV1",
      "contractAddress": "0x0c81e1c3e2cfb9f247b809c06927f2bb5202c3e8",
      "function": "revokeRole(bytes32,address)",
      "arguments": [
        "0x8135f02737a6b32709c1f229001b55183df0d6abcb3022e8bae091ad43fd9e6d",
        "0x0F59477D7517013A496fFC6aF6466Ac0d869C203"
      ],
      "transaction": {
        "from": "0x0f59477d7517013a496ffc6af6466ac0d869c203",
        "to": "0x0c81e1c3e2cfb9f247b809c06927f2bb5202c3e8",
        "gas": "0xa2b5",
        "value": "0x0",
        "input": "0xd547741f8135f02737a6b32709c1f229001b55183df0d6abcb3022e8bae091ad43fd9e6d0000000000000000000000000f59477d7517013a496ffc6af6466ac0d869c203",
        "nonce": "0x6",
        "chainId": "0x2105"
      },
      "additionalContracts": [],
      "isFixedGasLimit": false
    },
    {
      "hash": "0x57bff4aa522623f1b24ce698e6e43f550eb91dc427cfd4da8686cf3b36ccb2ca",
      "transactionType": "CALL",
      "contractName": "AlignmentManagerV1",
      "contractAddress": "0x0c81e1c3e2cfb9f247b809c06927f2bb5202c3e8",
      "function": "revokeRole(bytes32,address)",
      "arguments": [
        "0xa9783f04da8148a3316ae0711a5359306e6a8cfe393cba07d5b0a87301bb5efd",
        "0x0F59477D7517013A496fFC6aF6466Ac0d869C203"
      ],
      "transaction": {
        "from": "0x0f59477d7517013a496ffc6af6466ac0d869c203",
        "to": "0x0c81e1c3e2cfb9f247b809c06927f2bb5202c3e8",
        "gas": "0xac5a",
        "value": "0x0",
        "input": "0xd547741fa9783f04da8148a3316ae0711a5359306e6a8cfe393cba07d5b0a87301bb5efd0000000000000000000000000f59477d7517013a496ffc6af6466ac0d869c203",
        "nonce": "0x7",
        "chainId": "0x2105"
      },
      "additionalContracts": [],
      "isFixedGasLimit": false
    }
  ],
  "receipts": [
    {
      "status": "0x1",
      "cumulativeGasUsed": "0x2201f07",
      "logs": [
        {
          "address": "0x0c81e1c3e2cfb9f247b809c06927f2bb5202c3e8",
          "topics": [
            "0x2f8788117e7eff1d82e926ec794901d17c78024a50270940304540a733656f0d",
            "0x0000000000000000000000000000000000000000000000000000000000000000",
            "0x0000000000000000000000000f59477d7517013a496ffc6af6466ac0d869c203",
            "0x0000000000000000000000000f59477d7517013a496ffc6af6466ac0d869c203"
          ],
          "data": "0x",
          "blockHash": "0x89d6b8882036a24adc1b748fdd11b6b4a91bc50378fd8dd9d6855b2e413f76e9",
          "blockNumber": "0x1b6d87a",
          "transactionHash": "0x590dc9486321628b8351f394b8b59c66534220814d9202d276a7d1b3a5bed734",
          "transactionIndex": "0x71",
          "logIndex": "0x10b",
          "removed": false
        },
        {
          "address": "0x0c81e1c3e2cfb9f247b809c06927f2bb5202c3e8",
          "topics": [
            "0x2f8788117e7eff1d82e926ec794901d17c78024a50270940304540a733656f0d",
            "0x0000000000000000000000000000000000000000000000000000000000000000",
            "0x000000000000000000000000c0f0e1512d6a0a77ff7b9c172405d1b0d73565bf",
            "0x0000000000000000000000000f59477d7517013a496ffc6af6466ac0d869c203"
          ],
          "data": "0x",
          "blockHash": "0x89d6b8882036a24adc1b748fdd11b6b4a91bc50378fd8dd9d6855b2e413f76e9",
          "blockNumber": "0x1b6d87a",
          "transactionHash": "0x590dc9486321628b8351f394b8b59c66534220814d9202d276a7d1b3a5bed734",
          "transactionIndex": "0x71",
          "logIndex": "0x10c",
          "removed": false
        },
        {
          "address": "0x0c81e1c3e2cfb9f247b809c06927f2bb5202c3e8",
          "topics": [
            "0x2f8788117e7eff1d82e926ec794901d17c78024a50270940304540a733656f0d",
            "0x8135f02737a6b32709c1f229001b55183df0d6abcb3022e8bae091ad43fd9e6d",
            "0x000000000000000000000000c0f0e1512d6a0a77ff7b9c172405d1b0d73565bf",
            "0x0000000000000000000000000f59477d7517013a496ffc6af6466ac0d869c203"
          ],
          "data": "0x",
          "blockHash": "0x89d6b8882036a24adc1b748fdd11b6b4a91bc50378fd8dd9d6855b2e413f76e9",
          "blockNumber": "0x1b6d87a",
          "transactionHash": "0x590dc9486321628b8351f394b8b59c66534220814d9202d276a7d1b3a5bed734",
          "transactionIndex": "0x71",
          "logIndex": "0x10d",
          "removed": false
        },
        {
          "address": "0x0c81e1c3e2cfb9f247b809c06927f2bb5202c3e8",
          "topics": [
            "0x2f8788117e7eff1d82e926ec794901d17c78024a50270940304540a733656f0d",
            "0xa9783f04da8148a3316ae0711a5359306e6a8cfe393cba07d5b0a87301bb5efd",
            "0x000000000000000000000000c0f0e1512d6a0a77ff7b9c172405d1b0d73565bf",
            "0x0000000000000000000000000f59477d7517013a496ffc6af6466ac0d869c203"
          ],
          "data": "0x",
          "blockHash": "0x89d6b8882036a24adc1b748fdd11b6b4a91bc50378fd8dd9d6855b2e413f76e9",
          "blockNumber": "0x1b6d87a",
          "transactionHash": "0x590dc9486321628b8351f394b8b59c66534220814d9202d276a7d1b3a5bed734",
          "transactionIndex": "0x71",
          "logIndex": "0x10e",
          "removed": false
        }
      ],
      "logsBloom": "0x00000004000000000000000000000000000000000002000400000000000000000000000080000000000001000000000000000000000000000000000000000001000000000000000400000000000000000000000000000000000000000000000000000000020000000000000000000800000000000000000000000000000000000000000000000000100000000000000000000000000100200000000000000000000000000000000000000000100000000000000000000000001000000000000000000000000200000000400000000000000000000000000100000000000020000000000000000000000000000004000000000000000000000000040000080000",
      "type": "0x0",
      "transactionHash": "0x590dc9486321628b8351f394b8b59c66534220814d9202d276a7d1b3a5bed734",
      "transactionIndex": "0x71",
      "blockHash": "0x89d6b8882036a24adc1b748fdd11b6b4a91bc50378fd8dd9d6855b2e413f76e9",
      "blockNumber": "0x1b6d87a",
      "gasUsed": "0x15cfd1",
      "effectiveGasPrice": "0x1d7717",
      "from": "0x0f59477d7517013a496ffc6af6466ac0d869c203",
      "to": null,
      "contractAddress": "0x0c81e1c3e2cfb9f247b809c06927f2bb5202c3e8",
      "l1BaseFeeScalar": "0x8dd",
      "l1BlobBaseFee": "0x2e4404225",
      "l1BlobBaseFeeScalar": "0x101c12",
      "l1Fee": "0x25dfc170e788",
      "l1GasPrice": "0x59165dbf",
      "l1GasUsed": "0xc5ae"
    },
    {
      "status": "0x1",
      "cumulativeGasUsed": "0x22c96c0",
      "logs": [
        {
          "address": "0x1056d4ee7d2cbca3b1b8e8f923d2f14f75859ae2",
          "topics": [
            "0x2f8788117e7eff1d82e926ec794901d17c78024a50270940304540a733656f0d",
            "0x0000000000000000000000000000000000000000000000000000000000000000",
            "0x0000000000000000000000000f59477d7517013a496ffc6af6466ac0d869c203",
            "0x0000000000000000000000000f59477d7517013a496ffc6af6466ac0d869c203"
          ],
          "data": "0x",
          "blockHash": "0x89d6b8882036a24adc1b748fdd11b6b4a91bc50378fd8dd9d6855b2e413f76e9",
          "blockNumber": "0x1b6d87a",
          "transactionHash": "0x54ca3b0b78b77436e3b115774944ff282da3b775c52e6a25e478f2b0f65b4b19",
          "transactionIndex": "0x72",
          "logIndex": "0x10f",
          "removed": false
        },
        {
          "address": "0x1056d4ee7d2cbca3b1b8e8f923d2f14f75859ae2",
          "topics": [
            "0x2f8788117e7eff1d82e926ec794901d17c78024a50270940304540a733656f0d",
            "0x0000000000000000000000000000000000000000000000000000000000000000",
            "0x000000000000000000000000c0f0e1512d6a0a77ff7b9c172405d1b0d73565bf",
            "0x0000000000000000000000000f59477d7517013a496ffc6af6466ac0d869c203"
          ],
          "data": "0x",
          "blockHash": "0x89d6b8882036a24adc1b748fdd11b6b4a91bc50378fd8dd9d6855b2e413f76e9",
          "blockNumber": "0x1b6d87a",
          "transactionHash": "0x54ca3b0b78b77436e3b115774944ff282da3b775c52e6a25e478f2b0f65b4b19",
          "transactionIndex": "0x72",
          "logIndex": "0x110",
          "removed": false
        },
        {
          "address": "0x1056d4ee7d2cbca3b1b8e8f923d2f14f75859ae2",
          "topics": [
            "0x2f8788117e7eff1d82e926ec794901d17c78024a50270940304540a733656f0d",
            "0xc2825d737a264424cb2f2b7cd741b567aae783c235a5ef0089f07e98a100cb4b",
            "0x0000000000000000000000000c81e1c3e2cfb9f247b809c06927f2bb5202c3e8",
            "0x0000000000000000000000000f59477d7517013a496ffc6af6466ac0d869c203"
          ],
          "data": "0x",
          "blockHash": "0x89d6b8882036a24adc1b748fdd11b6b4a91bc50378fd8dd9d6855b2e413f76e9",
          "blockNumber": "0x1b6d87a",
          "transactionHash": "0x54ca3b0b78b77436e3b115774944ff282da3b775c52e6a25e478f2b0f65b4b19",
          "transactionIndex": "0x72",
          "logIndex": "0x111",
          "removed": false
        },
        {
          "address": "0x1056d4ee7d2cbca3b1b8e8f923d2f14f75859ae2",
          "topics": [
            "0x2f8788117e7eff1d82e926ec794901d17c78024a50270940304540a733656f0d",
            "0xffa5c698e3a2cbac270d1e1341a180923b70242637cb060413b9d1afe1f7175f",
            "0x0000000000000000000000000c81e1c3e2cfb9f247b809c06927f2bb5202c3e8",
            "0x0000000000000000000000000f59477d7517013a496ffc6af6466ac0d869c203"
          ],
          "data": "0x",
          "blockHash": "0x89d6b8882036a24adc1b748fdd11b6b4a91bc50378fd8dd9d6855b2e413f76e9",
          "blockNumber": "0x1b6d87a",
          "transactionHash": "0x54ca3b0b78b77436e3b115774944ff282da3b775c52e6a25e478f2b0f65b4b19",
          "transactionIndex": "0x72",
          "logIndex": "0x112",
          "removed": false
        }
      ],
      "logsBloom": "0x00000004000000000000000000000000000000000000000400000000000000000000000080000000000001000000800000000040000000000000000000000000000000000002000400000000000000000000000000000000000000000000200000000000020000000000000000200800000000000000000000000000000000000000000000000000000000000000000002000000000000200000000000000000000000000000100000000000000000000000000000000000001000000000000000000000400200000040008000000000000000000000000100000000000020000000080000000000000000000000000000000000000000000000000000000000",
      "type": "0x0",
      "transactionHash": "0x54ca3b0b78b77436e3b115774944ff282da3b775c52e6a25e478f2b0f65b4b19",
      "transactionIndex": "0x72",
      "blockHash": "0x89d6b8882036a24adc1b748fdd11b6b4a91bc50378fd8dd9d6855b2e413f76e9",
      "blockNumber": "0x1b6d87a",
      "gasUsed": "0xc77b9",
      "effectiveGasPrice": "0x1d7717",
      "from": "0x0f59477d7517013a496ffc6af6466ac0d869c203",
      "to": null,
      "contractAddress": "0x1056d4ee7d2cbca3b1b8e8f923d2f14f75859ae2",
      "l1BaseFeeScalar": "0x8dd",
      "l1BlobBaseFee": "0x2e4404225",
      "l1BlobBaseFeeScalar": "0x101c12",
      "l1Fee": "0x173317d372b7",
      "l1GasPrice": "0x59165dbf",
      "l1GasUsed": "0x7916"
    },
    {
      "status": "0x1",
      "cumulativeGasUsed": "0x22d61ec",
      "logs": [
        {
          "address": "0x0c81e1c3e2cfb9f247b809c06927f2bb5202c3e8",
          "topics": [
            "0x2f8788117e7eff1d82e926ec794901d17c78024a50270940304540a733656f0d",
            "0x8135f02737a6b32709c1f229001b55183df0d6abcb3022e8bae091ad43fd9e6d",
            "0x0000000000000000000000000f59477d7517013a496ffc6af6466ac0d869c203",
            "0x0000000000000000000000000f59477d7517013a496ffc6af6466ac0d869c203"
          ],
          "data": "0x",
          "blockHash": "0x89d6b8882036a24adc1b748fdd11b6b4a91bc50378fd8dd9d6855b2e413f76e9",
          "blockNumber": "0x1b6d87a",
          "transactionHash": "0xbc471509cf3ec6bb277809198c9c6426134be3e47018f21bad7bb7d9a7e9d7a9",
          "transactionIndex": "0x73",
          "logIndex": "0x113",
          "removed": false
        }
      ],
      "logsBloom": "0x00000004000000000000000000000000000000000000000400000000000000000000000000000000000000000000000000000000000000000000000000000000000000000000000000000000000000000000000000000000000000000000000000000000000000000000000000000000000000000000000000000000000000000000000000000000100000000000000000000000000100200000000000000000000000000000000000000000100000000000000000000000001000000000000000000000000200000000000000000000000000000000000100000000000000000000000000000000000000000004000000000000000000000000040000080000",
      "type": "0x0",
      "transactionHash": "0xbc471509cf3ec6bb277809198c9c6426134be3e47018f21bad7bb7d9a7e9d7a9",
      "transactionIndex": "0x73",
      "blockHash": "0x89d6b8882036a24adc1b748fdd11b6b4a91bc50378fd8dd9d6855b2e413f76e9",
      "blockNumber": "0x1b6d87a",
      "gasUsed": "0xcb2c",
      "effectiveGasPrice": "0x1d7717",
      "from": "0x0f59477d7517013a496ffc6af6466ac0d869c203",
      "to": "0x0c81e1c3e2cfb9f247b809c06927f2bb5202c3e8",
      "contractAddress": null,
      "l1BaseFeeScalar": "0x8dd",
      "l1BlobBaseFee": "0x2e4404225",
      "l1BlobBaseFeeScalar": "0x101c12",
      "l1Fee": "0x1328c4fb711",
      "l1GasPrice": "0x59165dbf",
      "l1GasUsed": "0x640"
    },
    {
      "status": "0x1",
      "cumulativeGasUsed": "0x22e2d24",
      "logs": [
        {
          "address": "0x0c81e1c3e2cfb9f247b809c06927f2bb5202c3e8",
          "topics": [
            "0x2f8788117e7eff1d82e926ec794901d17c78024a50270940304540a733656f0d",
            "0xa9783f04da8148a3316ae0711a5359306e6a8cfe393cba07d5b0a87301bb5efd",
            "0x0000000000000000000000000f59477d7517013a496ffc6af6466ac0d869c203",
            "0x0000000000000000000000000f59477d7517013a496ffc6af6466ac0d869c203"
          ],
          "data": "0x",
          "blockHash": "0x89d6b8882036a24adc1b748fdd11b6b4a91bc50378fd8dd9d6855b2e413f76e9",
          "blockNumber": "0x1b6d87a",
          "transactionHash": "0x28049fd73aa560bbc4cea3bc397133ebc6050a194f2414f8af9354f828a07e7f",
          "transactionIndex": "0x74",
          "logIndex": "0x114",
          "removed": false
        }
      ],
      "logsBloom": "0x00000004000000000000000000000000000000000002000400000000000000000000000000000000000000000000000000000000000000000000000000000001000000000000000000000000000000000000000000000000000000000000000000000000000000000000000000000000000000000000000000000000000000000000000000000000100000000000000000000000000000200000000000000000000000000000000000000000000000000000000000000000001000000000000000000000000200000000400000000000000000000000000100000000000000000000000000000000000000000000000000000000000000000000040000080000",
      "type": "0x0",
      "transactionHash": "0x28049fd73aa560bbc4cea3bc397133ebc6050a194f2414f8af9354f828a07e7f",
      "transactionIndex": "0x74",
      "blockHash": "0x89d6b8882036a24adc1b748fdd11b6b4a91bc50378fd8dd9d6855b2e413f76e9",
      "blockNumber": "0x1b6d87a",
      "gasUsed": "0xcb38",
      "effectiveGasPrice": "0x1d7717",
      "from": "0x0f59477d7517013a496ffc6af6466ac0d869c203",
      "to": "0x0c81e1c3e2cfb9f247b809c06927f2bb5202c3e8",
      "contractAddress": null,
      "l1BaseFeeScalar": "0x8dd",
      "l1BlobBaseFee": "0x2e4404225",
      "l1BlobBaseFeeScalar": "0x101c12",
      "l1Fee": "0x1328c4fb711",
      "l1GasPrice": "0x59165dbf",
      "l1GasUsed": "0x640"
    },
    {
      "status": "0x1",
      "cumulativeGasUsed": "0x22ee31b",
      "logs": [],
      "logsBloom": "0x00000000000000000000000000000000000000000000000000000000000000000000000000000000000000000000000000000000000000000000000000000000000000000000000000000000000000000000000000000000000000000000000000000000000000000000000000000000000000000000000000000000000000000000000000000000000000000000000000000000000000000000000000000000000000000000000000000000000000000000000000000000000000000000000000000000000000000000000000000000000000000000000000000000000000000000000000000000000000000000000000000000000000000000000000000000",
      "type": "0x0",
      "transactionHash": "0xa9eb9bfb605c6638e8f509b451efde3b174a1c94b7da4c2c2d886751986408aa",
      "transactionIndex": "0x75",
      "blockHash": "0x89d6b8882036a24adc1b748fdd11b6b4a91bc50378fd8dd9d6855b2e413f76e9",
      "blockNumber": "0x1b6d87a",
      "gasUsed": "0xb5f7",
      "effectiveGasPrice": "0x1d7717",
      "from": "0x0f59477d7517013a496ffc6af6466ac0d869c203",
      "to": "0x0c81e1c3e2cfb9f247b809c06927f2bb5202c3e8",
      "contractAddress": null,
      "l1BaseFeeScalar": "0x8dd",
      "l1BlobBaseFee": "0x2e4404225",
      "l1BlobBaseFeeScalar": "0x101c12",
      "l1Fee": "0x1328c4fb711",
      "l1GasPrice": "0x59165dbf",
      "l1GasUsed": "0x640"
    },
    {
      "status": "0x1",
      "cumulativeGasUsed": "0x22f97ef",
      "logs": [],
      "logsBloom": "0x00000000000000000000000000000000000000000000000000000000000000000000000000000000000000000000000000000000000000000000000000000000000000000000000000000000000000000000000000000000000000000000000000000000000000000000000000000000000000000000000000000000000000000000000000000000000000000000000000000000000000000000000000000000000000000000000000000000000000000000000000000000000000000000000000000000000000000000000000000000000000000000000000000000000000000000000000000000000000000000000000000000000000000000000000000000",
      "type": "0x0",
      "transactionHash": "0x5d500987940229272c111b1b873153355db6949415e3c234bc7550a64bc9bc67",
      "transactionIndex": "0x76",
      "blockHash": "0x89d6b8882036a24adc1b748fdd11b6b4a91bc50378fd8dd9d6855b2e413f76e9",
      "blockNumber": "0x1b6d87a",
      "gasUsed": "0xb4d4",
      "effectiveGasPrice": "0x1d7717",
      "from": "0x0f59477d7517013a496ffc6af6466ac0d869c203",
      "to": "0x0c81e1c3e2cfb9f247b809c06927f2bb5202c3e8",
      "contractAddress": null,
      "l1BaseFeeScalar": "0x8dd",
      "l1BlobBaseFee": "0x2e4404225",
      "l1BlobBaseFeeScalar": "0x101c12",
      "l1Fee": "0x1328c4fb711",
      "l1GasPrice": "0x59165dbf",
      "l1GasUsed": "0x640"
    },
    {
      "status": "0x1",
      "cumulativeGasUsed": "0x2300dbc",
      "logs": [
        {
          "address": "0x0c81e1c3e2cfb9f247b809c06927f2bb5202c3e8",
          "topics": [
            "0xf6391f5c32d9c69d2a47ea670b442974b53935d1edc7fd64eb21e047a839171b",
            "0x8135f02737a6b32709c1f229001b55183df0d6abcb3022e8bae091ad43fd9e6d",
            "0x0000000000000000000000000f59477d7517013a496ffc6af6466ac0d869c203",
            "0x0000000000000000000000000f59477d7517013a496ffc6af6466ac0d869c203"
          ],
          "data": "0x",
          "blockHash": "0x89d6b8882036a24adc1b748fdd11b6b4a91bc50378fd8dd9d6855b2e413f76e9",
          "blockNumber": "0x1b6d87a",
          "transactionHash": "0x52372899ffcc092ed37a0a1b00e092d0f706f0c424218e452dd2ae489464b49c",
          "transactionIndex": "0x77",
          "logIndex": "0x115",
          "removed": false
        }
      ],
      "logsBloom": "0x00000000000000000000000000000000000000000000000400000000000000000000000000000000000000000000000000200000000000000000000000000000000000000000000000000000000000000000000000000000000000000000000040000000000000000000000000000000000000000000000000000000000000000000000040000000100000000000000000000000000100200000000000000000000000000000000000000000100000000000000000000000000000000000000000000000000200000000000000000000000000000000000000000000000000000000000000000000000000000004000000000000000000000000040000080000",
      "type": "0x0",
      "transactionHash": "0x52372899ffcc092ed37a0a1b00e092d0f706f0c424218e452dd2ae489464b49c",
      "transactionIndex": "0x77",
      "blockHash": "0x89d6b8882036a24adc1b748fdd11b6b4a91bc50378fd8dd9d6855b2e413f76e9",
      "blockNumber": "0x1b6d87a",
      "gasUsed": "0x75cd",
      "effectiveGasPrice": "0x1d7717",
      "from": "0x0f59477d7517013a496ffc6af6466ac0d869c203",
      "to": "0x0c81e1c3e2cfb9f247b809c06927f2bb5202c3e8",
      "contractAddress": null,
      "l1BaseFeeScalar": "0x8dd",
      "l1BlobBaseFee": "0x2e4404225",
      "l1BlobBaseFeeScalar": "0x101c12",
      "l1Fee": "0x1328c4fb711",
      "l1GasPrice": "0x59165dbf",
      "l1GasUsed": "0x640"
    },
    {
      "status": "0x1",
      "cumulativeGasUsed": "0x2308395",
      "logs": [
        {
          "address": "0x0c81e1c3e2cfb9f247b809c06927f2bb5202c3e8",
          "topics": [
            "0xf6391f5c32d9c69d2a47ea670b442974b53935d1edc7fd64eb21e047a839171b",
            "0xa9783f04da8148a3316ae0711a5359306e6a8cfe393cba07d5b0a87301bb5efd",
            "0x0000000000000000000000000f59477d7517013a496ffc6af6466ac0d869c203",
            "0x0000000000000000000000000f59477d7517013a496ffc6af6466ac0d869c203"
          ],
          "data": "0x",
          "blockHash": "0x89d6b8882036a24adc1b748fdd11b6b4a91bc50378fd8dd9d6855b2e413f76e9",
          "blockNumber": "0x1b6d87a",
          "transactionHash": "0x57bff4aa522623f1b24ce698e6e43f550eb91dc427cfd4da8686cf3b36ccb2ca",
          "transactionIndex": "0x78",
          "logIndex": "0x116",
          "removed": false
        }
      ],
      "logsBloom": "0x00000000000000000000000000000000000000000002000400000000000000000000000000000000000000000000000000200000000000000000000000000001000000000000000000000000000000000000000000000000000000000000000040000000000000000000000000000000000000000000000000000000000000000000000040000000100000000000000000000000000000200000000000000000000000000000000000000000000000000000000000000000000000000000000000000000000200000000400000000000000000000000000000000000000000000000000000000000000000000000000000000000000000000000040000080000",
      "type": "0x0",
      "transactionHash": "0x57bff4aa522623f1b24ce698e6e43f550eb91dc427cfd4da8686cf3b36ccb2ca",
      "transactionIndex": "0x78",
      "blockHash": "0x89d6b8882036a24adc1b748fdd11b6b4a91bc50378fd8dd9d6855b2e413f76e9",
      "blockNumber": "0x1b6d87a",
      "gasUsed": "0x75d9",
      "effectiveGasPrice": "0x1d7717",
      "from": "0x0f59477d7517013a496ffc6af6466ac0d869c203",
      "to": "0x0c81e1c3e2cfb9f247b809c06927f2bb5202c3e8",
      "contractAddress": null,
      "l1BaseFeeScalar": "0x8dd",
      "l1BlobBaseFee": "0x2e4404225",
      "l1BlobBaseFeeScalar": "0x101c12",
      "l1Fee": "0x1328c4fb711",
      "l1GasPrice": "0x59165dbf",
      "l1GasUsed": "0x640"
    }
  ],
  "libraries": [],
  "pending": [],
  "returns": {},
  "timestamp": 1744309721,
  "chain": 8453,
  "commit": "37ca2c3"
}